:020000040800F2
:10000000602100204D0D00087105000873050008EF
:10001000770500087B0500087F0500080000000048
:100020000000000000000000000000008305000840
:100030008505000800000000870500088905000804
:10004000670D0008670D0008670D0008670D0008C0
:10005000670D0008670D0008670D0008670D0008B0
:10006000670D0008670D0008670D0008670D0008A0
:10007000670D0008670D0008670D0008670D000890
:10008000670D0008670D0008670D0008670D000880
:10009000670D0008670D0008670D0008670D000870
:1000A000670D0008670D0008670D0008670D000860
:1000B000670D0008670D0008670D0008670D000850
:1000C000670D0008670D0008670D0008670D000840
:1000D000670D00084B1F0008670D0008670D00083A
:1000E000670D0008670D0008670D0008670D000820
:1000F000670D0008670D0008670D0008670D000810
:10010000670D0008670D0008670D0008670D0008FF
:10011000670D0008670D0008670D0008670D0008EF
:10012000670D0008670D0008670D0008670D0008DF
:1001300000F002F800F05EF80AA090E8000C82449B
:100140008344AAF10107DA4501D100F053F8AFF278
:10015000090EBAE80F0013F0010F18BFFB1A43F0A5
:1001600001031847602A0000802A000010F8013BB4
:100170000A4413F0030408BF10F8014B1D1108BF17
:1001800010F8015B641E05D010F8016B641E01F8C5
:10019000016BF9D1002D15D010F8014B03F00C03C1
:1001A0000C2BA1EB04040ABF10F8013BA4EB831451
:1001B000A4EB032405F1010314F8016B5B1E01F8A5
:1001C000016BF9D5914238BF10F8013BD1D370478C
:1001D0000023002400250026103A28BF78C1FBD850
:1001E000520728BF30C148BF0B6070471FB51FBD05
:1001F00010B510BD01F006FF1146FFF7F7FF00F044
:1002000035F901F024FF03B4FFF7F2FF03BC01F05E
:1002100041FE0000C94A926942F00402C74B9A614C
:100220001A46D26942F00202DA61C54A126822F027
:100230007042C34B1A601A46126842F030421A608C
:10024000C04A1080121F1180BE4A143A128842F42C
:10025000E042BC4B143B1A801A46128842F40062FA
:100260001A80B84A0C3A128842F01002B54B0C3B87
:100270001A80DA13B34B2C3B1A801A46128842F0CC
:1002800001021A807047B04A92FBF0F2AD4B1A801F
:100290004FF4FA6292FBF0F24A43AA4B0C331A80F5
:1002A000704708B50121042001F022FB4FF4807053
:1002B000ADF8000010208DF8030003208DF8020037
:1002C00069469F4801F058F808BD00B587B0012184
:1002D0004FF4017001F00CFB0220ADF80400002087
:1002E0008DF8070001A9964801F046F80020029019
:1002F0008DF80C008DF80D004FF460200490002064
:10030000059001208DF8180002A9904800F0D3FD57
:100310000523012211468D4800F065FE01218B481E
:1003200000F0F5FD894800F014FE00BF874800F09A
:1003300015FE0028FAD1854800F01AFE00BF834858
:1003400000F01BFE0028FAD107B000BD70B50024F4
:10035000002510E001217D4800F019FE00BF0221B8
:100360007A4800F085FF0028F9D0784800F0A2FE16
:100370000444681CC5B2402DECDB64097448046079
:10038000204670BD10B5002405E0FFF7DFFF71497E
:1003900041F82400641CFF2CF7D910BD2DE9F04F63
:1003A00089B000245DE06C4830F824000FFA80F931
:1003B000694850F824004FEA204A484602F0A8FA5B
:1003C00080464FF0874102F0BBFA07464FF08E415E
:1003D00002F0BCF90546504602F09AFA80464FF00A
:1003E000874102F0ADFA07464FF08E4102F0AEF9B8
:1003F00006463146304602F0A3FA294602902846C6
:1004000002F09EFA0190029902F03EF9039002F088
:100410000FF9CDE9040101F020FE00224F4BCDE998
:10042000060101F073FE074601F03EFE83465CB90B
:100430004FF08E41584602F083FA074602F048FA20
:10044000474941F824000AE04FF08F41584602F036
:1004500077FA074602F03CFA414941F82400601C53
:1004600084B2802C9FDB09B0BDE8F08F01F0A8FCBE
:100470004FF4A06000F08AFC4FF4165001F019FD13
:10048000FFF723FFFFF70DFF40F2CF214FF47A7003
:10049000FFF7C0FE51E0FFF775FF4FF480722D4962
:1004A0002D4800F063F9FFF779FF00202D4908601F
:1004B00019240EE02A4850F824002A490968884285
:1004C00006D9274850F824002649086026480460C9
:1004D000641C6A2CEEDD2448006824490968401A2F
:1004E000002805DD2048006820490968401A04E01A
:1004F0001E4800681C490968401A022803DB0020D6
:1005000010490839088018480068184908601548DB
:100510000068B0F52F7F08D31349096801EBC101CA
:1005200048003221FFF7AFFE07E00F49096801EBF1
:10053000C10148000021FFF7A6FEACE70010024011
:10054000000801402C040040400D0300002401403D
:10055000F00F002034100020341400200000704000
:1005600034180020F40F0020F80F0020FC0F0020AA
:10057000704700BFFEE700BFFEE700BFFEE700BF19
:10058000FEE7704770477047704700000CB50020C9
:10059000019000906C48006840F480306A4908601F
:1005A00000BF6948006800F4003000900198401CCA
:1005B0000190009818B90198B0F5A06FF1D1624888
:1005C000006800F4003010B10120009001E000202C
:1005D00000900098012843D15C48006840F010006A
:1005E0005A4908600846006820F003000860084681
:1005F000006840F002000860534840685249486073
:100600000846406848600846406840F4806048609A
:100610000846406820F47C1048600846406840F472
:10062000E81048600846006840F08070086000BF2D
:100630004548006800F000700028F9D04248406842
:1006400020F00300404948600846406840F002003E
:10065000486000BF3C48406800F00C000828F9D111
:100660000CBD10B5FFF792FF10BD10B536480068FD
:1006700040F00100344908600846406834490840A9
:100680003149486008460068324908402E490860F0
:100690000846006820F4802008600846406820F47E
:1006A000FE0048604FF41F008860FFF7DAFF4FF04C
:1006B00000602949086010BD10B50021002000220B
:1006C000214B5B6803F00C0121B1042906D00829F5
:1006D00028D107E0214B224C236027E01F4B204C00
:1006E000236023E0184B5B6803F47010164B5B68C3
:1006F00003F48032022303EB904022B9194B4343A9
:10070000174C23600DE0104B5B6803F4003323B1FA
:10071000144B4343124C236003E0104B4343104CF3
:10072000236003E00D4B0E4C236000BF00BF064B5F
:100730005B68C3F303130C4CE15C094B1B68CB40B3
:10074000074C236010BD0000001002400020024052
:100750000000FFF8FFFFF6FE08ED00E000127A004F
:100760000010002000093D00041000202DE9F04F8A
:100770004FF0000C4FF0000301EB1C6EBEF902506D
:10078000BEF900400EF5807EBEF90290BEF90080F1
:100790000EF5807EBEF90270BEF900600EF5807E17
:1007A000BEF902B0BEF900A00EF5807ED044D94457
:1007B000A8EB4A0AA9EB4B0B4FEAA4044FEAA505A4
:1007C00004EBA60405EBA705A4EB6606A5EB6707FB
:1007D00004EBA80405EBA905A4EB6808A5EB6909DF
:1007E00006EBAB06A7EBAA07A6EB6B0B07EB6A0AB7
:1007F000458020F8044B478020F8046BA0F8029055
:1008000020F8048BA0F802A020F804BB03F1010338
:1008100093FAA3FC402BAFD1A0EB82014FF0100361
:1008200012090FF2361000F1000006B403EB430C7E
:100830006144A2F5803202EB8332B1F90250B1F982
:100840000040A1EB0301B0F902B0B0F900A000F143
:100850000400A5EB040E0EFB0BFC0AEB4B0E05FB94
:100860000ACB04FB0ECAB1F90250B1F90040A1EB6A
:100870000301B0F90290B0F9008000F10400A5EB8B
:10088000040E0EFB09FC08EB490E05FB08C904FB2E
:100890000EC8B1F90250B1F90040A1EB0301B0F963
:1008A0000270B0F9006000F10400A5EB040E0EFB2D
:1008B00007FC06EB470E05FB06C704FB0EC6B1F9A5
:1008C0000250B1F9004001F10001D044D944A8EB35
:1008D0004A0AA9EB4B0B4FEAA4044FEAA50504EB27
:1008E000264405EB2745A4EBE636A5EBE73704EBFA
:1008F000284405EB2945A4EBE838A5EBE93906EBDC
:100900002B46A7EB2A47A6EBEB3B07EBEA3A4D80D9
:100910000C8019444F800E801944A1F80290A1F870
:1009200000801944A1F802A021F804BBB2F580327E
:1009300083DA03EB430C6144A2F101025FEA024E49
:1009400018BFA0EB0C007FF476AF06BC4FEA830320
:1009500092087FF46AAFBDE8F08F004000000040CD
:100960000000004000005DDD213BA3227E18000056
:10097000412D7EA5412D0000412D00C000405DDDD0
:1009800082E75DDD213B7EA5412D00400000004057
:10099000000000400000AA2A94126B394606493232
:1009A0007C0CA8118E2349327C0CA3227E1821F7DF
:1009B0007931AA2A9412A8118E235DDD213BA3224E
:1009C0007E180000412D95C6B13F461A2B1E58EEE9
:1009D0003735BEB4C53EA8118E235DDD213B63A92A
:1009E0007138DF089A28B7CDC53E7EA5412D00009D
:1009F000412D00C0004063A92B1E21F77931BEB400
:100A0000C53EBEB47C0C58EE373561AC213B95C673
:100A1000BAF9BAE571383BA737355DDD82E75DDDB0
:100A2000213B7EA5412D21F766D756D53F3D3BA7FB
:100A30008E23A811C9CAB7CDC53E61AC7E18AA2ABB
:100A4000C1C295C6B13FBEB47C0C0040000000405E
:100A50000000004000001E3BB504693E9201C83C06
:100A60002403EB356409C83C24036B3946066C301B
:100A7000060E1E3BB504EB356409AA2A94126B39A5
:100A8000460649327C0CAE240917AF37D607882EAC
:100A90008D0F7E1E5D1BEB356409AA2A9412241863
:100AA0008C1F1E34F10AB3269015A8118E234932EB
:100AB0007C0CA3227E18140B60276C30060E7E1E61
:100AC0005D1B7104FB2A882E8D0F461A2B1EC7FD55
:100AD0005A2E9D2C1211FE15E72021F77931AA2AF2
:100AE0009412A8118E2387F05334B2281314480DA2
:100AF000202602EAE536B3269015DF089A289CE303
:100B00002B39AE2409177104FB2A5DDD213BA3229A
:100B10007E180000412D4ED7C53C9320EF198FFB66
:100B20006C2F78D1153E7E1E5D1B21F77931E2CB0B
:100B30000F3F641CC61CB8F2683395C6B13F461A15
:100B40002B1E58EE373597C1FB3F24188C1F02EA45
:100B5000E536F0BCEC3FFE15E720BAE57138A6B8E3
:100B6000853FD5133D2282E1DB39BEB4C53EA811D5
:100B70008E235DDD213B40B1AF3D790FDA244DD9A5
:100B8000423C2EAE423C480D202656D53F3D8EAB12
:100B9000823A140B602778D1153E63A97138DF08BB
:100BA0009A28B7CDC53EB1A71236A906CE2915CAD7
:100BB0004F3F78A668337104FB2A95C6B13FBCA5A8
:100BC00076303902212C38C3EC3F7EA5412D000040
:100BD000412D00C00040BCA5CE29C7FD5A2EF0BC57
:100BE000EC3F78A620268FFB6C2F09BAB13FB1A746
:100BF0003D2257F976304DB74F3F63A92B1E21F7A1
:100C00007931BEB4C53E8EABEF19ECF474325EB2EE
:100C1000153E2EAE9015B8F268332DB03F3D40B171
:100C2000121187F053342EAE423CBEB47C0C58EE09
:100C3000373561AC213BA6B8D6072BEC1236C8AAD3
:100C4000DB39F0BC240302EAE53663A9713897C1A9
:100C50006EFEDCE7B03734A8E53695C6BAF9BAE5DA
:100C600071383BA73735E2CB0FF59CE32B3978A6DB
:100C7000683378D173F082E1DB39EDA579314ED755
:100C8000EDEB6DDF823A99A56C2F5DDD82E75DDDCE
:100C9000213B7EA5412D9CE33AE352DBB63B99A56F
:100CA000FB2A02EA19DF4DD9423CEDA59A2887F0CC
:100CB00026DB4ED7C53C78A6202621F766D756D529
:100CC0003F3D3BA78E23C7FDDFD363D3AF3D34A8A1
:100CD000E720710494D078D1153E63A92B1E140B24
:100CE0008CCD94CF723EC8AA5D1BA811C9CAB7CDDE
:100CF000C53E61AC7E18241850C8E2CB0F3F2EAE23
:100D000090157E1E25C615CA4F3F2DB09412AE24F5
:100D10004AC451C8853F5EB28D0FAA2AC1C295C68A
:100D2000B13FBEB47C0C6C308EC1E2C4D43F4DB731
:100D30006409EB35B1C038C3EC3F09BA46061E3B27
:100D40002CC097C1FB3FF0BC24030000094880473A
:100D500009480047FEE7FEE7FEE7FEE7FEE7FEE79D
:100D6000FEE7FEE7FEE7FEE704480549054A064BB5
:100D7000704700006B06000831010008601B00206E
:100D800060210020601D0020601D002031490143CA
:100D9000314A1160704770B5002100230F22C478DA
:100DA00004B32D4C246804F4E064C4F5E064210A23
:100DB000C1F10403CA40447804FA03F18478144072
:100DC00021430901254C0678A155047804F01F053C
:100DD0000124AC4005786D11AD0005F1E025C5F8A2
:100DE000004109E0047804F01F050124AC401C4DCB
:100DF0000678761145F8264070BD1A4A0A4002432B
:100E0000154B1B1F1A60704739B1134A121D126827
:100E10000243114B1B1D1A6006E00F4A121D126897
:100E200082430D4B1B1D1A607047042808D14FF0F8
:100E3000E021096941F004014FF0E022116107E06F
:100E40004FF0E021096921F004014FF0E022116127
:100E5000704700000000FA050CED00E000E400E03F
:100E600080E100E080FFFF1F10B50446FA4884428D
:100E700008D10121401500F055FD0021601500F05A
:100E800051FD17E0F548844208D10121001500F01A
:100E900049FD0021201500F045FD0BE0F04884429B
:100EA00008D10121C80300F03DFD00214FF40040AE
:100EB00000F038FD10BD30B5024600200023506818
:100EC000E84C20400D790C6844EA0524204350602A
:100ED0009068E54C2040D1E902542C434D7944EA16
:100EE000450420439060D06A20F470000C7C641E9E
:100EF000E4B2234340EA0350D06230BD00210160D8
:100F0000017141718160C16001210174704721B19B
:100F1000826842F00102826003E0826822F00102EE
:100F20008260704721B1826842F48072826003E07F
:100F3000826822F480728260704710B50023CBB2C1
:100F40001AB144681C43446002E044689C43446016
:100F500010BD816841F008018160704701460020A2
:100F60008A6802F008020AB1012000E00020704700
:100F7000816841F0040181607047014600208A6861
:100F800002F004020AB1012000E00020704721B104
:100F9000826842F4A002826003E0826822F4A00228
:100FA00082607047014600208A6802F480020AB11C
:100FB000012000E00020704710B50A460021002300
:100FC000416821F46041531E41EA4331416010BD44
:100FD00021B1426842F40062426003E0426822F4B8
:100FE000006242607047F0B504460D4600200021C3
:100FF000092D11DDE068A5F10A0606EB4607072674
:1010000006FA07F18843A5F10A0606EB460603FA3D
:1010100006F10843E0600CE0206905EB4507072670
:1010200006FA07F1884305EB450603FA06F1084383
:101030002061072A0FDA606B561E06EB86071F2613
:1010400006FA07F18843561E06EB860605FA06F1F6
:101050000843606322E00D2A0FDA206BD61F06EBEF
:1010600086071F2606FA07F18843D61F06EB860679
:1010700005FA06F10843206310E0E06AA2F10D06CC
:1010800006EB86071F2606FA07F18843A2F10D0634
:1010900006EB860605FA06F10843E062F0BD21B1D1
:1010A000826842F48012826003E0826822F4801237
:1010B000826070470146C86C80B2704766484C3009
:1010C0000068704721B1426842F48062426003E0E8
:1010D000426822F480624260704721B1426842F463
:1010E0008052426003E0426822F4805242607047BE
:1010F0000A460021816821F4E04111438160704774
:1011000021B1826842F40042826003E0826822F4E6
:1011100000428260704721B1826842F4021282600C
:1011200003E0826822F402128260704701460020C8
:101130008A6802F400120AB1012000E00020704722
:10114000F0B504461546002000220026092911DDCD
:10115000E068A1F10A0707EB470C072707FA0CF232
:101160009043A1F10A0707EB470703FA07F2104380
:10117000E0600CE0206901EB410C072707FA0CF254
:10118000904301EB410703FA07F210432061A06B83
:10119000C0F30156EF1C06F1010CA7EB0C0707EB9F
:1011A000870C1F2707FA0CF29043EF1C06F1010C85
:1011B000A7EB0C0707EB870701FA07F21043A063C0
:1011C000F0BD10B50A4600210023816B21F44011C7
:1011D000531E41EA0351816310BD08B500230093FB
:1011E0000090009B0B440093009B1A6008BD08B55B
:1011F000024600200090009201F12800009B184454
:1012000000900098006880B208BD0A46002141683D
:10121000164B19401143416070474162826270472A
:101220000A460021416821F01F01114341607047C7
:1012300040B109490831096841F40001064A083201
:10124000116007E004490831096821F40001024AED
:10125000083211607047000000240140002801405E
:10126000003C0140FFFEF0FFFDF7F1FFFFFD3FFFF7
:101270000246002013680B400BB1012000E0002063
:101280007047CA430260704770B5024600200023D1
:1012900000240B125568CEB205EA060415681D40FD
:1012A00015B10CB1012000E0002070BD00220A122F
:1012B000D34303607047000010B50446CC48844215
:1012C00008D10121042000F02DFB0021042000F0B2
:1012D00029FB46E0C748844208D10121082000F0DC
:1012E00021FB0021082000F01DFB3AE0C2488442A7
:1012F00008D10121102000F015FB0021102000F082
:1013000011FB2EE0BD48844208D10121202000F0CD
:1013100009FB0021202000F005FB22E0B8488442B0
:1013200008D10121402000F0FDFA0021402000F00A
:10133000F9FA16E0B348844208D10121802000F078
:10134000F1FA0021802000F0EDFA0AE0AE48844274
:1013500007D10121801500F0E5FA0021A01500F069
:10136000E1FA10BD10B50121084600F0DBFA0021BA
:10137000012000F0D7FA10BD2DE9F041024600250A
:101380000026002000230024002791F803C00CF061
:101390000F0591F803C00CF0100CBCF1000F03D046
:1013A00091F802C04CEA050591F800C0BCF1000FAD
:1013B00031D0146800202BE04FF0010C0CFA00F340
:1013C000B1F800C00CEA03069E4220D183004FF022
:1013D0000F0C0CFA03F7BC4305FA03FC4CEA0404B7
:1013E00091F803C0BCF1280F06D14FF0010C0CFAA4
:1013F00000FCC2F814C00AE091F803C0BCF1480F29
:1014000005D14FF0010C0CFA00FCC2F810C0401CD2
:101410000828D1D31460B1F800C0BCF1FF0F34DD4F
:10142000546800202EE000F1080C4FF0010808FA83
:101430000CF3B1F800C00CEA03069E4221D18300F0
:101440004FF00F0C0CFA03F7BC4305FA03FC4CEA0F
:10145000040491F803C0BCF1280F05D100F1080C79
:1014600008FA0CF8C2F8148091F803C0BCF1480FD8
:1014700007D100F1080C4FF0010808FA0CF8C2F887
:101480001080401C0828CED35460BDE8F0814FF690
:10149000FF710180022181700421C17070470246F2
:1014A000002093680B400BB1012000E00020704742
:1014B0000146886880B2704702460020D3680B401E
:1014C0000BB1012000E0002070470146C86880B2DF
:1014D000704701617047416170470AB1016100E0E6
:1014E00041617047C16070474FF480320A438261A6
:1014F0008161826182698269704702460020434BA4
:1015000018684FF68073184040EA021008433F4BBA
:10151000186070473E49C8617047F0B50A4600231D
:1015200000240021002500F00046B6F1004F02D152
:10153000364EF16901E0354E7168C0F3034583B260
:1015400000F44016B6F5401F08D121F070612F4E0F
:10155000766826F070662D4F7E6012E000F48016EB
:10156000B6F5801F06D1032606FA05F4A14341F023
:10157000706106E0460D360103FA06F6B14341F00C
:10158000706122B1460D360103FA06F6314300F0D0
:101590000046B6F1004F02D11C4EF16101E01B4E36
:1015A0007160F0BD30B500228B071C0F0F2303FACA
:1015B00004F2164B08338C1053F824309343134C29
:1015C00008348D1044F8253023468C1053F824300D
:1015D0008C07240F00FA04F423430C4C08348D10BC
:1015E00044F8253030BD0A49DC31086070470000FE
:1015F00000080140000C01400010014000140140AF
:1016000000180140001C0140002001400000014082
:1016100000002042DF48006840F00100DD4908601A
:1016200008464068DC490840DA49486008460068D6
:10163000DA490840D74908600846006820F480204D
:1016400008600846406820F4FE0048604FF41F0020
:1016500088607047CF49096821F48031CD4A116014
:101660001146096821F480211160B0F5803F03D054
:10167000B0F5802F0ED106E0C649096841F48031EB
:10168000C44A116007E0C349096841F4A021C14A76
:10169000116000E000BF00BF704710B50146002296
:1016A000002300204A11012A02D1BA4C236806E027
:1016B000022A02D1B74C236A01E0B64C636A01F0FA
:1016C0001F02012494401C400CB1012000E00020C6
:1016D00010BD38B5002000900024002500BF312047
:1016E000FFF7DBFF05460098401C00900098B0F51E
:1016F000A06F01D0002DF2D03120FFF7CEFF08B14E
:10170000012400E00024204638BD01460020A14A03
:10171000106820F0F80040EAC10010607047A0494E
:1017200008607047024600209A4B586820F47C10ED
:1017300042EA01031843974B58607047984908667E
:10174000704701460020934A506820F00300084388
:10175000506070478F48406800F00C0070470146A9
:1017600000208C4A506820F0F00008435060704719
:1017700001460020874A506820F4E060084350602A
:10178000704701460020834A506820F4605040EAC8
:10179000C1005060704729B17E4A527A02437D4BA6
:1017A0005A7204E07B4A527A82437A4B5A727047EB
:1017B0007B49D8310860704701460020754A50685F
:1017C00020F440400843506070470021714A2032A5
:1017D0001170704A82F82010012802D004280AD122
:1017E00004E001216B4A2032117005E00521694AAD
:1017F0002032117000E000BF00BF704769490860E7
:1018000070476449096A0143624A11627047654939
:1018100044390860704730B50021002200240023BD
:101820005C4D6D6805F00C0121B1042905D0082933
:1018300023D105E05C4D056022E05B4D05601FE0B3
:10184000544D6D6805F47012524D6D6805F4803486
:10185000022505EB92421CB9544D554305600BE03F
:101860004C4D6D6805F400351DB1504D5543056074
:1018700002E04D4D5543056002E04B4D056000BF51
:1018800000BF444D6D6805F0F0010909484D6B5CDF
:101890000568DD4045603F4D6D6805F4E061090A6B
:1018A000434D6B5C4568DD4085603A4D6D6805F4DD
:1018B0006051C90A3E4D6B5C4568DD40C560354DE1
:1018C0006D6805F44041890B3A4D6B5CC568B5FB0A
:1018D000F3F5056130BD29B12E4A526902432D4B03
:1018E0005A6104E02B4A526982432A4B5A6170477D
:1018F00029B1284A92690243264B9A6104E0254A9D
:1019000092698243234B9A61704729B1214AD26977
:101910000243204BDA6104E01E4AD26982431D4B28
:10192000DA61704729B11B4AD2680243194BDA6069
:1019300004E0184AD2688243164BDA60704729B136
:10194000144A12690243134B1A6104E0114A1269E6
:101950008243104B1A617047124940390860704742
:101960000F49C86470470B49C87170470948406AFD
:1019700040F0807007494862704701460020054AE0
:1019800092680A400AB1012000E000207047014936
:1019900088727047001002400000FFF8FFFFF6FE5B
:1019A000000042428004424200127A0000093D00D9
:1019B000141000202410002010B50446FB48844277
:1019C00009D101218803FFF7ADFF00214FF48040CA
:1019D000FFF7A8FF32E0F648844209D1012148040C
:1019E000FFF7ADFF00214FF40030FFF7A8FF25E01F
:1019F000F048844209D101218804FFF7A0FF0021AB
:101A00004FF48020FFF79BFF18E0EB48844209D198
:101A10000121C804FFF793FF00214FF40020FFF7D6
:101A20008EFF0BE0E548844208D101210805FFF74D
:101A300086FF00214FF48010FFF781FF10BD2DE9D4
:101A4000F04786B005460E460024A24600BFA146D8
:101A50000027B08900B100BF2F462C8A4CF6FF70DA
:101A60000440F08804432C82AC894EF6F310044005
:101A7000B08831890843718908430443AC81AC8A3A
:101A80004FF6FF400440B0890443AC8201A8FFF741
:101A9000C2FEC648874202D1DDF810A001E0DDF8A1
:101AA0000CA0A88900F4004040B10AEBCA0000EB8A
:101AB0000A1031684900B0FBF1F807E00AEBCA00F0
:101AC00000EB0A1031688900B0FBF1F86420B8FB24
:101AD000F0F004012009642101FB1089A88900F4B9
:101AE000004040B1322000EBC900B0FBF1F000F043
:101AF0000700044308E0322000EB09106421B0FB2A
:101B0000F1F000F00F0004432C8106B0BDE8F0872F
:101B10004FF41651016000218180C18001810C21A8
:101B2000418100218181704710B502460020108A52
:101B30004FF2FF0318400B884C8823438C882343C3
:101B4000CC8823431843108210BD002101804180BE
:101B50008180C180704721B1828942F40052828124
:101B600004E082894DF6FF731A4082817047F0B518
:101B70000346002400260025002040F66A17B942DB
:101B800000D100BF1846C1F3421401F01F0601271F
:101B900007FA06F5012C01D10C3004E0022C01D12A
:101BA000103000E014301AB107682F43076002E0DC
:101BB0000768AF430760F0BD1AB1838A0B43838285
:101BC00002E0838A8B4383827047028A4FF6F07368
:101BD0001A400282028A0A430282704782894FF2C7
:101BE000FF731A40828182890A438281704721B142
:101BF000828942F00202828104E082894FF6FD73FD
:101C00001A4082817047028A4FF6DF731A400282BF
:101C1000028A0A430282704721B1028A42F480425A
:101C2000028204E0028A4BF6FF731A400282704778
:101C3000C1F308028280704701468888C0F308001B
:101C40007047818941F0010181817047028BD2B2D6
:101C50000283028B42EA012202837047028B02F464
:101C60007F420283028B0A430283704721B1828A3A
:101C700042F02002828204E0828A4FF6DF731A402B
:101C80008282704721B1828A42F01002828204E08F
:101C9000828A4FF6EF731A408282704721B1828A9E
:101CA00042F00802828204E0828A4FF6F7731A40FB
:101CB0008282704721B1828942F40042828103E02E
:101CC0008289C2F30E028281704721B1828A42F476
:101CD0000062828204E0828A4FF2FF731A4082829D
:101CE0007047828A4FF6FB731A408282828A0A43C7
:101CF0008282704721B1828A42F00202828204E02D
:101D0000828A4FF6FD731A40828270470246002095
:101D1000B1F5007F00D100BF13880B400BB101204B
:101D200000E00020704701F40072B2F5007F00D19E
:101D300000BFCA430280704770B5024600240023EA
:101D40000025002040F66A16B14200D100BFC1F361
:101D5000421501F01F03012606FA03F3012D02D1FB
:101D60009689334006E0022D02D1168A334001E005
:101D7000968A33400C12012606FA04F41688344081
:101D800013B10CB1012000E0002070BD10B500229D
:101D9000002340F66A14A14200D100BF0A120124B8
:101DA0009440A3B2DC43048010BD00000038014021
:101DB0000044004000480040004C004000500040FB
:101DC00010B56FF00400FFF730F82E4800682E4978
:101DD000B0FBF1F02D4908700846007800EB400197
:101DE000C1EBC0104FF6FF7101EAC000284908801E
:101DF00010BD0146254A12784A434FF0E0235A614C
:101E000000229A611A46126942F001021A6100BF6B
:101E10004FF0E022106900F001021AB100F48032A4
:101E2000002AF5D04FF0E022126922F001024FF0B3
:101E3000E0231A6100229A6170470146144A128811
:101E40004A434FF0E0235A6100229A611A46126910
:101E500042F001021A6100BF4FF0E022106900F069
:101E600001021AB100F48032002AF5D04FF0E022CE
:101E7000126922F001024FF0E0231A6100229A61F8
:101E8000704700000010002000127A002810002087
:101E90002A100020014600BF704700BF494A12883F
:101EA00002F04002002AF9D0C2B2464B1B1D1A8034
:101EB000704710B586B00446012144F20400FFF7D4
:101EC00017FD4FF40070ADF8140003208DF81600D4
:101ED00018208DF8170005A93B48FFF74DFA4FF47D
:101EE0008060ADF8140004208DF8170005A936486D
:101EF000FFF742FA25208DF8000003208DF801003D
:101F00008DF8020001208DF803006846FEF743FFBC
:101F100001940020ADF80800ADF80A00ADF80C00FF
:101F2000ADF810000C20ADF80E0001A92548FFF710
:101F300086FD012240F225512248FFF718FE0121BB
:101F40002048FFF708FE06B010BD10B540F225513D
:101F50001C48FFF7F1FE10B31A48FFF76DFEC4B23C
:101F60001A48008800F40040C8B91848008800F4F6
:101F7000804060B10A2C03D000201449088020E082
:101F80001248008840F400401049088019E00D2CE8
:101F900006D10E48008840F480400C49088010E0CB
:101FA0000A480088C0F30D0009490C54074800880E
:101FB000401C0649088008460088C72801DD00202B
:101FC000088010BD0038014000080140301000209A
:101FD000341A00207047704770477047704710B53B
:101FE00000F008F8006810BD10B5044600F002F8D3
:101FF000046010BD00487047FC1A0020004870477C
:10200000FC1A00207546FFF7F9FFAE460500694649
:10201000534620F00700854618B020B5FEF7A4FE11
:10202000BDE820404FF000064FF000074FF00008D9
:102030004FF0000B21F00701AC46ACE8C009ACE85A
:10204000C009ACE8C009ACE8C0098D467047044639
:10205000AFF300802046FEF7D6F82DE9F0410646A2
:102060000F4600F0FFF904000D4618BF0120284379
:1020700020F00040C0F17F6000F1E040C00F0ED0C2
:10208000301C18BF0120384320F00040C0F17F60B1
:1020900000F1E040C00F04BF0120FFF7A5FF20467C
:1020A0002946BDE8F081000021F00042A2F1605213
:1020B000B2F5801F01F0004328BFD2F17F6C0BD92D
:1020C0005FEA001C43EAC20242EB507018BF70473F
:1020D00028BF20F001007047B2F5801FBCBF184632
:1020E00070474FEA410C1CF5001F02D2084600F071
:1020F000EEBC70B500F062F900000089FFF7F6BF92
:102100004FF00040A0F58000704700002DE9C0416D
:1021100030B4DFF8A0C23CEA111418BF3CEA131433
:1021200000F0EC8081EA03051CEA111444EAD5743E
:1021300018BF1CEA131500F0C780A4EB05044FF08C
:10214000004545EAC12145EAC32341EA505143EA2B
:10215000525304F17F74994204F500344FEAC020D1
:102160004FEAC22208BF904200F09C804FEA1365FC
:102170000FF24016765D4FEA134506FB05F7C7F1EF
:10218000807706FB07F74FEAD737A7FB036876424D
:10219000C8F58038A7FB06CE38BFA8F1010807FBB9
:1021A00008E64FF0000EA6FB028CE6FB03CEDCF146
:1021B000000CCEF1004E38BFAEF1010EA6FB0C585C
:1021C0004FF000074FF00005E6FB0E87A1FB08C6A5
:1021D000A0FB07CE16EB0E0645F10005E1FB0765F7
:1021E00015F1E04E7EBFA4F580345FEA46066D41EE
:1021F00016F1800745F100054FEA17274FEA0666FA
:1022000047EA0567A6F1DE46B6F1805F4FEA15257D
:102210001FD9384624F0010C05EBC471BCF1FE6FE8
:1022200001EB0C1102D8F0BCBDE8008124425CBF78
:1022300001F5801E9EEAC47F02D4F0BCBDE8008197
:10224000244238D4F0BCA1F1C041BDE8004100F007
:1022500003B94FEAD22242EA43524FEAD323A7FB03
:1022600002864FEAD02040EA415007FB03661EEA8F
:102270000E0F4FEAD12105FB026658BFA6EB0056B0
:10228000B6EB00564FEA520E4EEAC37E18EB0E0E26
:1022900056EB530EBDD518EB02085E417F1C55F17D
:1022A0000005B6E74FF480154FF000074FF0000629
:1022B0004FF00008ADE7F0BC4FF0000001F1C04165
:1022C00001F00041BDE8008111EA0C1F0CEA131572
:1022D00000D00CE013EA0C1F00F025804FF0000046
:1022E000F0BC81EA030101F00041BDE80081F0BCCF
:1022F00081EA0301BDE8004100F0AEB8F0BCBDE8E2
:10230000004170B500F05AF8097EFC3E00F007B8B5
:1023100081EA03014FF0000001F00041704781EABB
:10232000030100F099B8F0BC4FF000002249BDE86D
:1023300000417047FFFDFBF9F7F5F4F2F0EEEDEB2D
:10234000E9E8E6E4E3E1E0DEDDDBDAD8D7D5D4D3B3
:10235000D1D0CFCDCCCBCAC8C7C6C5C4C2C1C0BFFF
:10236000BEBDBCBBBAB9B8B7B6B5B4B3B2B1B0AF05
:10237000AEADACABAAA9A8A8A7A6A5A4A3A3A2A1E9
:10238000A09F9F9E9D9C9C9B9A99999897979695A4
:1023900095949393929191908F8F8E8E8D8C8C8B40
:1023A0008B8A8989888887878685858484838382C8
:1023B000828181800000FF070000F87F0EF1020E8D
:1023C0002EF0030E5EF8046B364205D4012A43EB6F
:1023D000030515F5001F12D8012841EB010C1CF56F
:1023E000001F0CD80ED14FEAD17C15F5001F0CEB65
:1023F0004C0C0CF1020C08BF4CEBD37C04E04FF00A
:10240000080C01E04FEAD37C0CEB4C0526FA05F6EC
:1024100006F00706B6F1040C06D20EEB860CBDE8FA
:1024200070404CF0010C6047DFE80CF0090B020231
:102430004FF000414FF00000A1F5002170BD19469A
:102440001046012851EB010418BFD4F5001484BFD5
:10245000002001F0004170BD0808A0F500114FEA0E
:10246000310170472DE9F04101F5801CBCF5001FDA
:10247000C0F2C3804FEA115C21EA0C510CF1FD0C53
:1024800041F480115FEA5C0C0CF5C07C01D3400084
:1024900049413DA4890241EA905187028E0E0A0CFF
:1024A000A45D04FB04F602FB06F6C6F14046A4FB5D
:1024B0000662F60D46EA422606FB06F4A4FB01235B
:1024C0005242C3F1404338BF5B1EA6FB02420024C8
:1024D000E6FB0324D20B42EA4446A6FB0623A1FBFB
:1024E00002E2A3FB07E4A4184FF0000252F100023D
:1024F000E3FB01426442C2F1404E38BFAEF1010E2F
:10250000A6FB04234FF00002E6FB0E32A2FB0346BB
:102510004FF00004B61954F10004E2FB0264A1FB81
:1025200006E6A4FB07E816EB08064FF0000858F192
:102530000008E4FB01687642C8F1405838BFA8F1B2
:102540000108A2FB06E4A3FB08E52D194FF00004E7
:1025500054F10004E2FB0854A1FB05E6A7FB04E8E4
:1025600018EB06084FF0000656F10006E1FB048662
:1025700018F1200556F10006A809A8F11B08B109B9
:1025800008F03F08B8F10A0F40EA86601CD901EB59
:102590000C51BDE8F08100BFFCF5EEE8E2DDD8D3D8
:1025A000CFCBC7C3C0BDB9B6B4B1AEACA9A7A5A3C4
:1025B000A19F9D9B9A9896959392908F8D8C8B89D5
:1025C0008887868584838281A0FB006800FB01F2F6
:1025D00008EB4208B8EB872807D5341858EB0104FC
:1025E000D5D5401C51F10001D1E7341A78EB010434
:1025F000CDD4401E71F10001C9E75FEA4C0C5FEADF
:102600009C5C0DD105D34FF0000001F00041BDE806
:10261000F081BDE8F04170B5FFF7D0FE6DDBFFBE85
:10262000BDE8F0414FF00000004970470000F87F1E
:1026300043004FEAD30C4FEA3C0C43401FBF400716
:102640000CF1605113F0FE4F70471CF0006F03D186
:1026500000200CF0004170470CF0004343EA50703A
:1026600010B540EACC0000F0ECF900BF0000009289
:102670004FEA0001FFF7F0BE4FF000414FF00000BD
:10268000A1F500217047000090EA010F48BF81F0DA
:10269000004100F12882421A3CBF801A89184FEA93
:1026A000D0524FF07F4C1CEA410FA2EBD15318BF20
:1026B0009CEA026F00F03B804FF0004C4CEA002097
:1026C0004CEA012121FA03FC10EB0C0C1ED202F1A2
:1026D000FF325FEA1C2040EBC25038BF70471CF04D
:1026E0007F0F4FEA400C18BFBCF17F4F38BF7047D7
:1026F000C3F12003994008BF20F00100BCF17F4FD7
:1027000038BF7047A0F1C04000F0E1B94FEA3C008B
:10271000000A40EBC25028BF1CF0FF0F4FEA400CEC
:10272000E6D018BFBCF17F4F38BF7047EAE79CEA9C
:10273000026F05D010EA5C0F08BF00F00040704740
:1027400010B500F07EF900BF64FBBE3E4FF47F0C75
:102750001CEAD0121EBF1CEAD11392EA0C0F93EAB6
:102760000C0F00F0858090EA010F48BF42F48072A0
:1027700040F4000C41F400002CF07F4120F07F4039
:1027800000B58142A2EB03020FF2081CACEB504EE5
:10279000C0F100009EF800E04FEA4E0E00FB0EFC78
:1027A00038BF49004FEA2C1C02F5FA020CFB0EF36D
:1027B0004FEACE1E4FEA112C4FEAC1210EEB635EA9
:1027C00042EB22420EFB0CFC4FEA1C5300FB0311B0
:1027D0004FEA112C4FEA01310EFB0CFC4FEADC4CA6
:1027E00000FB0C11C14228BF09184CEB03335DF804
:1027F00004EB10EB410143EBC250B2F57C0F38BF44
:10280000704729D512F0F00F1CBF00F1C04000F056
:1028100000407047008182838485868788898B8CFD
:102820008D8E8F919293959697999A9C9D9FA0A239
:10283000A3A5A7A8AAACAEB0B2B3B5B7B9BCBEC089
:10284000C2C5C7C9CCCED1D4D7D9DCDFE2E6E9EC2A
:10285000F0F3F7FAFE0000004FEA400C0CF1807C28
:10286000BCF17E4F28BF7047B0F1C04000F02FB9D7
:1028700090EA010F0CEAD11348BF42F4807262451E
:1028800038BF634507D213F47F0F16D080EA0100EA
:1028900000F00040704710B500F0D3F8097EFC3E10
:1028A00000F005B880EA010000F00040704780EABF
:1028B000010000F0004000F00AB912F47F0F04BFDD
:1028C0000248704780EA010000F001B90000C07FB3
:1028D000C10DD1F19E0206DB4FEA002343F0004315
:1028E00023FA02F07047004207D54FEA4001B1F1E8
:1028F000FE4F02D24FF00000704710B500F0A1F873
:1029000049922480002070476FEA20007047000041
:1029100010F0004148BF4042B0FA80F310FA03F2D1
:10292000C3F19D030BD051EAC35101EB12205306B2
:1029300038BF704700F1010008BF20F00100704768
:102940004FF47F0C1CEAD0121EBF1CEAD11392EA8E
:102950000C0F93EA0C0F00F0478090EA010F48BF7C
:1029600042F480724FF0004C4CEA00204CEA012106
:1029700002EB0302A0FB0113A2F50002002918BF1D
:1029800043F001035B0028BF4FEA330342EB2242CE
:102990005FEA132C4CEBC2502EBFBCEB436FB2F579
:1029A0007C0F70474FEA036CBCF1004F08BF20F06A
:1029B0000100B2F57C0F38BF70470BD582F0FF02E3
:1029C00012F5803FC8BF704700F1C040D8BF00F08B
:1029D0000040704700F5000C5FEA4C0C48BF7047A0
:1029E000B0F1C04000F073B890EA010F0CEAD113C7
:1029F00048BF42F48072624538BF634504D280EA22
:102A0000010000F00040704710B500F01AF800BF58
:102A10008900013E00F007B800F009B85FEA410CF8
:102A20005FEA1C6C08D080EA010000F050B85FEA51
:102A3000400C5FEA1C6CF6D14FF00040A0F580001E
:102A400070470EF1020E2EF0030E5EF8044B244286
:102A500004D44FEA4102B2F17F4F11D84FEA40034C
:102A6000B3F17F4F0CD80ED14FEAD07CB2F17F4F3B
:102A70000CEB4C0C0CF1020C08BF4CEBD17C04E0CD
:102A80004FF0080C01E04FEAD17C0CEB4C0324FA28
:102A900003F404F00704B4F1040C06D20EEB840C2A
:102AA000BDE810404CF0010C6047DFE80CF007086F
:102AB00002024FF00040A0F5800010BD0846420021
:102AC00018BFD2F1807288BF00F0004010BDFF2116
:102AD00041EAD050C005704790EA010F48BF81F02D
:102AE00000413FF5D8AD421A04D882F00042A0EB75
:102AF000020011444FEAD0524FF07F4C1CEA410FC4
:102B0000A2EBD15318BF9CEA026F4AD04FF0004CA1
:102B10004CEA00204CEA012121FA03FCB0EB0C0C3A
:102B20000FD412F0FE0F36D05FEA4C001DD5001214
:102B300040EBC25038BF70471CF03F0F18BF7047C2
:102B40000BE0A2F101025FEA1C2040EBC25038BF4B
:102B500070471CF07F0F18BF7047C3F120039940E6
:102B600014BF401E20F00100704780084FEA122376
:102B700008BF7047B0FA80FCA2EB0C02CCF1280C25
:102B800060FA0CF093EA122F04BF00EBC2507047BA
:102B90004FEAC3707047130A5FEADC1008BF704742
:102BA000F6E79CEA026F04D010EA5C0F08BF002031
:102BB000704710B5FFF745FF40DFF63E81F000405B
:102BC00070470000E42B00080000002034100000D3
:102BD0006C01000800380008341000202C1100009F
:102BE000D00100086005004000000420115DDD21D7
:102BF0003BA3227E180000412D7EA5412D0820090F
:102C000000C000405DDD82E71C311491302011AA24
:102C10002A94126B39460649327C0CA8118E23087F
:102C20002140200521F779311C2114A15460119510
:102C3000C6B13F461A2B1E58EE3735BEB4C53E20EE
:102C4000A00D63A97138DF089A28B7CDC53E78205A
:102C50000563A92B1E4C212C2005BEB47C0C38A08A
:102C60001161AC213B95C6BAF9BAE571383BA7377B
:102C7000359C201121F766D756D53F3D3BA78E23C3
:102C8000A811C9CA50200961AC7E18AA2AC1C27C09
:102C90002144A1F020111E3BB504693E9201C83CBD
:102CA0002403EB3564090821D020056C30060E1C86
:102CB0002114A1E46011AE240917AF37D607882E7E
:102CC0008D0F7E1E5D1B20A40D24188C1F1E34F159
:102CD0000AB3269015082005140B60274C212C20E0
:102CE000057104FB2A382500A40DC7FD5A2E9D2C22
:102CF0001211FE15E7202C201187F05334B228134F
:102D000014480D202602EAE53650251820059CE3DC
:102D10002B397C2144A5A420114ED7C53C9320EF2C
:102D2000198FFB6C2F78D1153E682530A40DE2CBAE
:102D30000F3F641CC61CB8F2683374200597C1FBB2
:102D40003FAC215C2005F0BCEC3F802548A40DA6DB
:102D5000B8853FD5133D2282E1DB3998201140B17F
:102D6000AF3D790FDA244DD9423C2EAE423C982536
:102D70006020058EAB823ADC2174A5BC2011B1A77E
:102D80001236A906CE2915CA4F3F78A66833F42516
:102D900078A40DBCA576303902212C38C3EC3FE075
:102DA0002405BCA5CE290C218C200578A62026C898
:102DB000A81109BAB13FB1A73D2257F976304DB7F6
:102DC0004F3F0420118EABEF19ECF474325EB21554
:102DD0003E2EAE9015E024092DB03F3D40B11211BA
:102DE0003C21A4A9282411A6B8D6072BEC1236C87A
:102DF000AADB39F0BC240354296CA80D97C16EFEE0
:102E0000DCE7B03734A8E5364C153826F56C21BC24
:102E1000240578D173F010A811EDA579314ED7EDC6
:102E2000EB6DDF823A99A56C2F7024119CE33AE395
:102E300052DBB63B99A5FB2A02EA19DF282409EDEB
:102E4000A59A2887F026DB9C21D4A9944411C7FDBC
:102E5000DFD363D3AF3D34A8E720710494D040A8FA
:102E60000F2B1E140B8CCD94CF723EC8AA5D1BB8DD
:102E70002405241850C8CC21EC24057E1E25C658F4
:102E8000A8112DB09412AE244AC451C8853F5EB239
:102E90008D0FDC24116C308EC1E2C4D43F4DB76479
:102EA00009EB35B1C070240909BA46061E3B2CC097
:102EB000FC2504ADC0032011D03E2E019B3F6500D0
:102EC000363FC9009A3D5B02082D100320055F3C88
:102ED00088031C2114AD24036011D939E205023E98
:102EE000F701F43BED038E380E0720AC0D3F373968
:102EF00008313DC002463A7E054803200592348ED3
:102F00000A4C212C20053433B70B382D4003AC0D6F
:102F1000D231DF0C8A3B5104CE369D086C03201160
:102F2000022F2B0FB23A1A0505352B0A932D50109C
:102F3000502D58032005212C73117C2144AD7404BD
:102F400020113129B413FD38AA065B31410DB32796
:102F5000D214942D7003AC0D3226EE151F38720773
:102F60007B2FCA0EB403200526232118AC215C2038
:102F7000059C213719802D8803AC0D0E204B1A5D5E
:102F8000360109A42BD311D8032011EB1C6C1C783B
:102F900035C709AF295413561B791D982DA003205E
:102FA00005BE19841EDC2174ADFC03201188169126
:102FB00020A933540BB1254C16EA149321F42DB8F3
:102FC00003AC0D4A139222BF321A0CA923C4172056
:102FD000042405051088240C218C2005610E7E2513
:102FE000C82DD003AC0DBB0C7126E430A40D891F95
:102FF000A71A440420116D094C28F42F680E721D85
:10300000121CC4073529E02DE80324051B061A2AE3
:103010003C21A4BD6804241002D82B0E2EEE0F35DF
:1030200019DC1E1C01B22C542DAC04AC0D72FF88AF
:103030002D182DB11011173A208C0424051DFC28E1
:103040002F6C21BC240573FAF22F102D1804AC0D3F
:10305000CAF8B830282B3412BF12E722B00424116A
:1030600079F536322D2AF41291103524D2F3EF324D
:10307000282D300424052CF2A3339C21D4ADD40494
:103080002411E3EEFF34332873142E0CC12641EDD6
:10309000A535402D4804AC0DA1EB4836332731153A
:1030A000FA09FE27F804240565E87E37CC21EC24D4
:1030B00005CBE61238582D6004AC0D32E5A1382F4F
:1030C00025AB168D05652A1C05241108E2B0392BA5
:1030D00024661755038F2B77E0303A702D7804243F
:1030E00005E9DEAB3AFC2504AD90062811D5DB924C
:1030F0003B1F22DB18E4FECF2D4FDAFD3B142D9051
:1031000004AC0DCDD8643C17219319ABFCE42E64BC
:10311000052805D3D5213D2C251C24055CD4783DFC
:10312000A02DA804AC0DE8D2C93D041F021B3CF839
:10313000F930880524110CD05C3EF81DB81B06F64A
:10314000F831A5CE9D3EB82DC004280541CDD83E0E
:103150005C2534ADAC05241188CA403FDD1B201D21
:103160009FF1DF3332C96B3FD02540AC0DE1C791F1
:103170003FCE1AD31D6FEFC634D00528054EC5CCFF
:103180003F8C254C24050CC4E13FE82DF004AC0D28
:10319000CFC2F13FAD18341F16EB7D36F4051E6526
:1031A0007405280D9B17E31FEFE84B3738BFFF3F2F
:1031B000002D0805280511BEF83FBC2564AD180692
:1031C0002811D4BBDB3F74153D21AAE4CF38BFBA28
:1031D000C43F182D8C06AC0DAFB9A73F5F14E82192
:1031E0008EE284393C062805A2B75D3FEC257C2899
:1031F00005A5B6303F302D3805AC0DAFB5FD3E34DA
:10320000123B2364DED33AF8072811D5B3883E1D5C
:1032100011E22357DC6D3BF2B2453E482D50052CA0
:103220000515B2FC3D1C032594AD84062C1171B02C
:103230005B3DED0E2C254DD8853CA9AF033D3403F5
:1032400025A0AC0DE8AEA53CD40DCF2551D6033D4D
:10325000A8062C057BADDA3B4C0325AC2805D0AC89
:103260006D3B782D8005BC0C2BACFA3AA10B1127D5
:103270006DD2E3CC062811F8AA063A870AAF278553
:10328000D0453E6AAA8439902D98052C05E3A9FD06
:10329000387C0325C4ADF0062811EBA8E1375208AD
:1032A000E728CCCCEB3E7BA84B37A82DB005AC0D66
:1032B00012A8B13636078129FBCA303F14072C0506
:1032C00057A76E35AC0325DC280505A7C634C02DED
:1032D000C805BC0CBBA61934FF04B02A72C79C38C1
:1032E0000728113EA6B232E303452BBAC5C43F0BF3
:1032F000A6F831D82DE0052C05E0A53931DC0325F1
:10330000F4AD5C072C11A1A5AF2FAA016A2C66C2EF
:10331000F53F8DA5E42EF4032DF805BC0C81A51511
:103320002E8E00FA2CCAC0FF80072C0581A56A2CBE
:103330000C04290C2C058DA58F2B0803100473BEDB
:10334000FB48AC0BB02A56FE152EB0BDF53FA407C6
:10335000100CE0A5E72839FD9F2E32BCE1902FFE2E
:10336000272003100477BBD4A82F11273C0429245D
:10337000ADC807100CBBA62C2501FBAF2F56B99C7E
:10338000F02F352454042930BC0C57A73B23E5F912
:103390003430F8B76BEC072C0512A83D216C0429DA
:1033A0003C2C057BA83A205003AC1100B60F3FEB34
:1033B000A8341FAEF739315EB5EB3E140A140CE3A6
:1033C000A9201D93F6B93122B49DB02F121C6803B9
:1033D000140488B372C82F021B9C042954AD34080E
:1033E000180C2BACDB185FF4B232CDB1E3102FC454
:1033F00017B4042960AC0D7BADAB1645F32C33B587
:10340000B0783D58082C05E8AE7314CC04296C2C18
:1034100005A9AF54139803180428AFC588AC0B3422
:103420001213F11934A9AE853C7C08180C15B2EEC4
:103430000FFBEF8D34B6ADFDD02FCA0EB0031804CC
:1034400041ADB6E82FA40DFC042984ADA0081C0CE6
:10345000AFB5540BCCED6E35F6ABD330032F2B0A42
:1034600014052990AC0DA2B70109B6ECDC3529ABE7
:10347000303AC4082C05AFB9AA062C05299C2C05A6
:10348000BFBA7E05E003AC110FAA2B39D4BB51049F
:103490008CEAB136B7A9CF38E8082C1111BEF70174
:1034A00078E9183712A9123838BFC900F8032C0977
:1034B000C5A8B03765C09BFF5C0529B4AD0C093CBD
:1034C00011CFC240FD53E7E137F1A77D360CC4139D
:1034D000FC740519C0AC0D4EC5E6FA42E6423874DC
:1034E000A7A53530092C05E1C78EF88C0529CC2C11
:1034F0000532C963F72804AC11D3A6533488CA39FE
:10350000F623E4FD38A4A6DF3354092C1141CDE69F
:10351000F315E3583950A6EF32A5CEBFF240042C84
:10352000092CA674320CD098F1BC0529E4AD7809B9
:103530002C11E8D24FEFFCE0063AD3A5F9305CD469
:103540002DEED40529F0AC0DD3D50CEDF2DF593AB0
:10355000A9A5F22F9C092C05CDD8CFEAEC0529FCB2
:103560002C054FDAB4E97004AC1185A55A2ED5DBD1
:103570009AE8E1DDFA3A7FA5CF2DC0092C11E9DEEA
:103580006DE6DADC473B7FA5B22C77E059E588048D
:103590002C0985A5212C08E248E41C062D1403AD56
:1035A000E4092C1132E52DE2D1DADA3BA9A5652A2E
:1035B000CBE624E134062DC40AAC0D65E81DE0CE4F
:1035C000D9203CD3A53529080A2C05A1EB18DE4CDF
:1035D000062D2C032C0541ED19DDB804AC112CA6E9
:1035E0006027E3EE1EDCCDD7A53C50A6C1262C0AF1
:1035F0002C112CF231DACFD6E43CA4A67E25D2F3EE
:103600003FD9D0042C09D3A6DA2479F551D87C0609
:103610002D4403AD500A2C11CAF87FD6D8D45B3D97
:1036200074A7E72273FA9BD5E8042D5003AC0D1D57
:10363000FCBBD4DFD3933DF1A79321740A2C057210
:10364000FF06D3AC062D5C032C051C0131D200050E
:10365000AC11C5A88C1FC70261D1F2D1FC3D12A9E3
:10366000DC1E980A2C111B06CCCFFED02D3EB7A92C
:10367000791DC40707CF18052C090FAAC61C6D09B0
:1036800047CEDC062D7403ADBC0A2C11BB0CD4CC88
:103690001CCF883E29ABA71A610E21CCF4062D80E1
:1036A00003AC0D051073CB2ECEB13EF6AB37199897
:1036B0000D2C054A1324CA0C072D8C032C05EA1483
:1036C00083C94805AC1141AD09178816E8C857CC25
:1036D000FD3EB6AD4C16040B2C11BE19BEC76ECB09
:1036E000203FA9AED214561B31C760052C0928AF64
:1036F0001314EB1CA8C63C072DA403AD280B2C11FA
:103700000E20A7C5A3C95D3FB5B0D3119C212DC51F
:1037100054072DB003AC0D2623B9C4C1C8783FCDE2
:10372000B150104C0B2C053226E0C36C072DBC03A6
:103730002C05B3277BC39005AC1188B3060E312945
:103740001CC303C7A73F22B4410D700B2C11212CC1
:103750006DC227C6BB3F5EB5B70B932D1DC2A80532
:103760002C0900B6F10A022FD3C19C072DD403AD5A
:10377000940B2C11D2314FC176C4DB3FF8B79D08B2
:10378000343315C1C0052DA40CAC0D9234E0C0A19A
:10379000C3E73F56B90E07B80B2C053F3788C0CC9E
:1037A000072DEC032C058E3864C0D805AC1177BB0F
:1037B000B504D93945C0FEC1F83F32BCED03DC0B7E
:1037C0002C115F3C19C030C1FD3FB0BD5B029A3D7A
:1037D0000BC0F0052C0973BE9201D03E03C0FC075C
:1037E0002D0404F1016004A24A040B6009010203E4
:1037F00004060708090C6110A00502040608390038
:0400000508000131BD
:00000001FF
