:020000040800F2
:10000000C8210020A1180008D10B0008D30B00085C
:10001000D70B0008DB0B0008DF0B00080000000016
:10002000000000000000000000000000E30B0008DA
:10003000E50B000800000000E70B0008E90B0008D2
:10004000BB180008BB180008BB180008BB18000844
:10005000BB180008BB180008BB180008BB18000834
:10006000BB180008BB180008BB180008BB18000824
:10007000BB180008BB180008BB180008BB18000814
:10008000BB180008BB180008BB180008BB18000804
:10009000BB180008BB180008BB180008BB180008F4
:1000A000BB180008BB180008BB180008BB180008E4
:1000B000FB0E0008B50F0008BB180008BB180008AD
:1000C000BB180008BB180008BB180008BB180008C4
:1000D000BB1800083F110008BB180008BB18000837
:1000E000BB180008BB180008BB180008BB180008A4
:1000F000BB180008BB180008BB180008BB18000894
:10010000BB180008BB180008BB180008BB18000883
:10011000BB180008BB180008BB180008BB18000873
:10012000BB180008BB180008BB180008BB18000863
:1001300000F002F800F071F80AA090E8000C824488
:100140008344AAF10107DA4501D100F066F8AFF265
:10015000090EBAE80F0013F0010F18BFFB1A43F0A5
:1001600001031847645700008457000010F8013B52
:100170000A4413F0030408BF10F8014B1D1108BF17
:1001800010F8015B641E05D010F8016B641E01F8C5
:10019000016BF9D1002D15D010F8014B03F00C03C1
:1001A0000C2BA1EB04040ABF10F8013BA4EB831451
:1001B000A4EB032405F1010314F8016B5B1E01F8A5
:1001C000016BF9D5914238BF10F8013BD1D370478C
:1001D0000023002400250026103A28BF78C1FBD850
:1001E000520728BF30C148BF0B607047662905F031
:1001F0001E83642903F04683632903F09E86002052
:1002000070471FB503F0A6FE04000020002104F093
:1002100007FCE0601FBD10B510BD03F099FF11464B
:10022000FFF7EFFF00F05EFA03F0B7FF03B4FFF74C
:10023000F2FF03BC00F028FF30B502460023FE4861
:1002400004780078401CFC4D2870FC4840F82420BD
:1002500028460078142802D100202C462070002166
:1002600005E0F64850F821000344481CC1B21429A7
:10027000F7DB1420B3FBF0F030BD30B502460023AD
:10028000EF4804780078401CED4D2870ED4840F8A8
:10029000242028460078142802D100202C46207003
:1002A000002105E0E74850F821000344481CC1B292
:1002B0001429F7DB1420B3FBF0F030BD242803D160
:1002C0000121E14A117013E0DF49097881B1DF496A
:1002D000DF4A12688854DE490968491CDC4A11600B
:1002E00011460968092903D100211160D64A11700D
:1002F000704708B501210C2002F0A4F84FF480608B
:10030000ADF8000010208DF8030003208DF80200E6
:100310006946D04801F0DAFD4FF48050ADF8000096
:1003200010208DF8030003208DF802006946C948AB
:1003300001F0CCFD0120ADF8000028208DF803006D
:1003400003208DF802006946C34801F0BFFD40203C
:10035000ADF8000028208DF8030003208DF802007E
:100360006946BD4801F0B2FD4FF48070ADF8000061
:1003700048208DF8030003208DF802006946B64836
:1003800001F0A4FD08BD30B587B005460C4601213B
:10039000084602F064F80121042002F053F8ADF899
:1003A0001450ADF810400020ADF81600ADF8120062
:1003B00004A94FF0804002F07DF90020ADF8040060
:1003C000ADF806000120ADF808000020ADF80A00E5
:1003D000ADF80C0001A94FF0804002F0FEFB1C209C
:1003E0008DF8000002208DF8010000208DF8020039
:1003F00001208DF80300684601F077FA01220321FD
:10040000900702F0CEFC0121880702F0AFFC07B094
:1004100030BD30B587B005460C460121022002F000
:100420001EF80121042002F00DF8ADF81450ADF8CB
:1004300010400020ADF81600ADF8120004A987485E
:1004400002F038F90020ADF80400ADF806000120F4
:10045000ADF808000020ADF80A00ADF80C0001A9C5
:100460007E4802F0BAFB1D208DF8000002208DF8B6
:10047000010000208DF8020001208DF8030068467D
:1004800001F033FA01220321744802F08AFC0121B1
:10049000724802F06BFC07B030BD00207049087054
:1004A00070490870704710B504466CB14FF4806114
:1004B000684801F0B8FD0F2003F053F94FF4806154
:1004C000644801F0B2FD0CE04FF48051614801F046
:1004D000AAFD0F2003F045F94FF480515D4801F06B
:1004E000A4FD10BD10B5002404E05F49085D00F0D4
:1004F0004EFE641C1E2CF8DB10BD00B587B0012138
:100500004FF4017001F09EFF0220ADF804000020BE
:100510008DF8070001A9504801F0D8FC0020029096
:100520008DF80C008DF80D004FF460200490002031
:10053000059001208DF8180002A94C4801F065FAD9
:10054000052301221146494801F0F7FA01214748E5
:1005500001F087FA454801F0A6FA00BF434801F0D0
:10056000A7FA0028FAD1414801F0ACFA00BF3F4891
:1005700001F0ADFA0028FAD107B000BD70B5002433
:10058000002510E00121394801F0ABFA00BF02213B
:10059000364801F017FC0028F9D0344801F034FB4C
:1005A0000444681CC5B2402DECDB6409304804608B
:1005B000204670BD10B5002405E0FFF7DFFF2D4990
:1005C00041F82400641CFF2CF7D910BD2DE9F04F31
:1005D00089B0002480E0284830F824000FFA80F920
:1005E000254850F824004FEA204A484604F060FFAE
:1005F00080464FF0874104F0A7FF07464FF08E4139
:1006000004F040FE0546504604F052FF80464FF08D
:10061000874104F099FF07464FF08E4104F032FE07
:1006200006463146304604F08FFF294602902846A0
:1006300004F08AFF019021E03410002070100020A7
:1006400035100020C0100020F90F0020F00F00200E
:1006500038100020000C0140000801400004004058
:100660005010002054100020101B002000240140D6
:10067000FC0F00201011002010150020029904F03A
:1006800093FD039004F064FDCDE9040104F0A2F9A8
:100690000022F64BCDE9060104F00AFA074604F001
:1006A000D5F983465CB94FF08E41584604F04CFFB3
:1006B000074604F0DDFEEE4941F824000AE04FF061
:1006C0008F41584604F040FF074604F0D1FEE84948
:1006D00041F82400601C84B2802CFFF67CAF09B086
:1006E000BDE8F08F86B003F023F84FF4A06001F06E
:1006F000F7F8FFF7FEFD0A214FF6FF70FFF743FE04
:100700000A214FF6FF70FFF784FE4FF48061D9484D
:1007100001F08BFC4FF4E13000F0C5FCFFF7EDFE7B
:1007200033E2FFF747FF4FF48072D349D34800F01C
:10073000C7FDFFF74BFF0020D14908604FF02D099E
:1007400010E0CB4850F82900CD490968884207D904
:10075000C74850F82900CA490860CA48C0F8009044
:1007600009F10109B9F1730FEBDD002409E0C64876
:1007700050F82400C3490968081AC44941F8240004
:10078000641C092CF3DD40F2E730C1490860002405
:1007900018E0BE4850F82400002803DDBB4850F89C
:1007A000240003E0B94850F824004042B8490968E1
:1007B000884206DAB54850F82400B5490860B048C8
:1007C0000460641C092CE4DDFFF767FE082002F0DA
:1007D000ECFF0020FFF767FE082002F0E6FF012093
:1007E000FFF761FE082002F0E0FFAA480088FFF74B
:1007F00023FD824604F0B4FA0746A74AA74B04F04B
:10080000C3FA054604F022F90390A5480088FFF7D3
:1008100034FD824604F0A4FA05469F4A9F4B04F03B
:10082000B3FA074604F012F904900021039804F08B
:10083000EBFD04D00021049804F0E6FD09D10A2163
:100840004FF6FF70FFF79FFD0A214FF6FF70FFF78D
:10085000E0FD9449039804F075FF05464FF0804190
:1008600004F0A2FC03908F48049904F06BFF054646
:100870004FF0804104F066FF04908B49039804F028
:100880002FFE12D28949039804F02AFF0DD286491F
:10089000049804F025FE08D28449049804F020FF4F
:1008A00003D241208DF808008FE00021049804F065
:1008B00017FF11D20021039804F012FF0CD2DDE9DA
:1008C000031004F00DFF03D242208DF808007CE0F5
:1008D00043208DF8080078E00021049804F000FF20
:1008E00026D20021039804F0FBFD21D200210398B9
:1008F00004F0F6FE01D2039802E0039880F0004075
:1009000005460021049804F0EBFE01D2049802E0B1
:10091000049880F000400646294604F0E1FE03D228
:1009200042208DF8080050E045208DF808004CE08A
:100930000021049804F0D4FD26D20021039804F08D
:10094000CFFD21D20021039804F0CAFE01D2039802
:1009500002E0039880F0004005460021049804F06E
:10096000BFFE01D2049802E0049880F000400646E1
:10097000294604F0B5FE03D244208DF8080024E097
:1009800045208DF8080020E00021039804F0A8FE1F
:1009900001D2039802E0039880F000400546002150
:1009A000049804F09DFE01D2049802E0049880F0BF
:1009B00000400646294604F093FE03D244208DF8F9
:1009C000080002E043208DF808004FF48071384899
:1009D00001F00FFB30B33748027837A13D4802F0F1
:1009E00013FFFFF77FFD334800793249C978CDE91D
:1009F000001030488378427837A1364802F004FF6F
:100A0000FFF770FD2B48007A2A49C979CDE900101B
:100A100028488379427939A12E4802F0F5FEFFF784
:100A200061FDA0E09DF8082023A12A4802F0ECFE19
:100A3000FFF758FD3A49039804F052FE02D23948B4
:100A4000394902E0039804F083FB05462A460B4629
:100A500036A1204802F0D8FEFFF744FD3049049843
:100A600004F03EFE73D22F482F4973E0000070401F
:100A700010190020000C014010110020101500205A
:100A8000001000200410002008100020301B00205F
:100A90003010002052100020D9F5C1E8A859663F57
:100AA00056100020000020420000A0410000A0C11C
:100AB00000080140F00F0020445334382837302C10
:100AC0003131332C272563272C372C30293B0D0A55
:100AD00000000000101B0020445334382831373701
:100AE0002C3131332C272563256325632E2563277D
:100AF0002C372C30293B0D0A0000000044533438B9
:100B0000283332382C3131332C2725632563256374
:100B10002E2563272C372C30293B0D0A00000000BE
:100B20000000C8429A99999999F958404453343829
:100B3000283137372C3131332C27252E31662027A9
:100B40002C372C30293B0D0A00000000FFE70498E9
:100B500004F0FEFA05462A460B460CA1134802F0A3
:100B600053FEFFF7BFFC0A2002F01FFE104800688A
:100B70000A2802D20E48006800E0002002460DA1BB
:100B80000A4802F041FEFFF7ADFCCAE54453343891
:100B9000283332382C3131332C27252E316620274B
:100BA0002C372C30293B0D0A00000000101B0020C0
:100BB00000100020445334382837302C3233352C81
:100BC000272564272C372C30293B0D0A0000000014
:100BD000704700BFFEE700BFFEE700BFFEE700BFB3
:100BE000FEE7704770477047704700000CB5002063
:100BF000019000906C48006840F480306A490860B9
:100C000000BF6948006800F4003000900198401C63
:100C10000190009818B90198B0F5A06FF1D1624821
:100C2000006800F4003010B10120009001E00020C5
:100C300000900098012843D15C48006840F0100003
:100C40005A4908600846006820F00300086008461A
:100C5000006840F00200086053484068524948600C
:100C60000846406848600846406840F48060486034
:100C70000846406820F47C1048600846406840F40C
:100C8000E81048600846006840F08070086000BFC7
:100C90004548006800F000700028F9D042484068DC
:100CA00020F00300404948600846406840F00200D8
:100CB000486000BF3C48406800F00C000828F9D1AB
:100CC0000CBD10B5FFF792FF10BD10B53648006897
:100CD00040F0010034490860084640683449084043
:100CE0003149486008460068324908402E4908608A
:100CF0000846006820F4802008600846406820F418
:100D0000FE0048604FF41F008860FFF7DAFF4FF0E5
:100D100000602949086010BD10B5002100200022A4
:100D2000214B5B6803F00C0121B1042906D008298E
:100D300028D107E0214B224C236027E01F4B204C99
:100D4000236023E0184B5B6803F47010164B5B685C
:100D500003F48032022303EB904022B9194B434342
:100D6000174C23600DE0104B5B6803F4003323B194
:100D7000144B4343124C236003E0104B4343104C8D
:100D8000236003E00D4B0E4C236000BF00BF064BF9
:100D90005B68C3F303130C4CE15C094B1B68CB404D
:100DA000074C236010BD00000010024000200240EC
:100DB0000000FFF8FFFFF6FE08ED00E000127A00E9
:100DC0003C10002000093D004010002030B589B0E3
:100DD00005460C460121C80201F034FB0121042024
:100DE00001F030FB4FF48070ADF8200018208DF832
:100DF000230003208DF8220008A99B4801F066F823
:100E0000ADF81850ADF814400020ADF81A00ADF858
:100E1000160005A9954801F04DFC7020ADF80400BE
:100E20000120ADF806000020ADF80A00ADF80C0076
:100E300001A98E4801F07BFC01218C4801F0A2FF42
:100E400008218A4802F0C2F80121884802F08EF891
:100E50000121864801F08AFF09B030BD30B585B068
:100E600005460C460121084601F0F9FA012104204B
:100E700001F0E8FA0120ADF8100028208DF81300E9
:100E800004A9794801F022F80121774801F0CDF852
:100E9000ADF80850ADF804400020ADF80A00ADF8F8
:100EA000060001A94FF0804001F004FC00207049C9
:100EB00008804880012088800020C88008814FF089
:100EC000804001F08AFE1C208DF8000002208DF881
:100ED000010000208DF8020001208DF80300684613
:100EE00000F003FD01220321900701F05AFF0121C8
:100EF000880701F03BFF05B030BD10B55D480078B4
:100F000000F0800000284FD10121880702F0F7F996
:100F1000D0B15848007800F04000A8B1554800789A
:100F200000F03F003F280AD15248007840F080008E
:100F3000504908704FF6FF704F49088004E04D4853
:100F40000078401C4B4908700221480702F0D7F98D
:100F500050B34848007800F0400088B14548007818
:100F600040F08000434908704FF0804002F0A8F93B
:100F70004149088000214FF0804002F0A9F813E0B9
:100F800000203C4908703C49088000214FF0804017
:100F900002F080F93748007840F040003549087089
:100FA0000221480702F094F803214FF0804002F03C
:100FB000B7F910BD10B53148007800F08000002866
:100FC0004CD101212E4802F09AF9D0B12B4800787B
:100FD00000F04000A8B12948007800F03F003F2809
:100FE0000AD12648007840F08000244908704FF666
:100FF000FF702449088004E020480078401C1F4905
:10100000087002211E4802F07AF938B31B480078B4
:1010100000F0400078B11948007840F0800017498E
:101020000870174802F04CF916490880002114484E
:1010300002F04EF812E000201049087011490880B3
:1010400000210F4802F026F90C48007840F04000DB
:101050000A49087002210A4802F03AF803210848B8
:1010600002F05EF910BD000000080140002C0140B4
:10107000581B002050100020521000205410002057
:101080000004004056100020014600BF704700BF1A
:10109000894A128802F04002002AF9D0C2B2864B77
:1010A0001B1D1A80704710B586B00446012144F21A
:1010B000050001F0C7F94FF40070ADF814000320EB
:1010C0008DF8160018208DF8170005A97B4800F050
:1010D000FDFE4FF48060ADF8140004208DF8170079
:1010E00005A9764800F0F2FE25208DF800000320C7
:1010F0008DF801008DF8020001208DF8030068468C
:1011000000F0F3FB01940020ADF80800ADF80A00F0
:10111000ADF80C00ADF810000C20ADF80E0001A9E0
:10112000654802F044F9012240F22551624802F07C
:10113000D6F90121604802F0C6F906B010BD10B51D
:1011400040F225515C4802F0AFFA30B15A4802F043
:101150002BFAC4B22046FFF7B1F810BDC0F3080166
:10116000554A121D118000BF5349098801F0400102
:101170000029F9D0704710B50446234603E01878DB
:10118000FFF7ECFF5B1C18780028F8D110BDC0F306
:101190000801494A121D118000BF4749098801F022
:1011A00080010029F9D070472DE9F04F05460E4621
:1011B00017469B46DDE90A9ADDF82480B123A52075
:1011C000FFF7E5FF5A20FFF7E2FF1020FFF7DFFFF0
:1011D000A120FFF7DCFF002D02DAC5F5004005B2C3
:1011E000C5F307242046FFF7D2FF2344ECB2204684
:1011F000FFF7CDFF2344002E02DAC6F5004006B209
:10120000C6F307242046FFF7C2FF2344F4B220466A
:10121000FFF7BDFF2344002F02DAC7F5004007B2F5
:10122000C7F307242046FFF7B2FF2344FCB2204651
:10123000FFF7ADFF2344BBF1000F03DACBF500400D
:101240000FFA80FBCBF307242046FFF7A0FF2344CF
:101250000BF0FF042046FFF79AFF2344B8F1000F7C
:1012600003DAC8F500400FFA80F8C8F307242046D7
:10127000FFF78DFF234408F0FF042046FFF787FFA8
:101280002344B9F1000F03DAC9F500400FFA80F9E1
:10129000C9F307242046FFF77AFF234409F0FF042F
:1012A0002046FFF774FF2344D8B2FFF770FFAA204F
:1012B000FFF76DFFBDE8F08F0038014000080140E6
:1012C0002DE9F04F4FF0000C4FF0000301EB1C6EC6
:1012D000BEF90250BEF900400EF5807EBEF90290C4
:1012E000BEF900800EF5807EBEF90270BEF9006086
:1012F0000EF5807EBEF902B0BEF900A00EF5807E2C
:10130000D044D944A8EB4A0AA9EB4B0B4FEAA404FA
:101310004FEAA50504EBA60405EBA705A4EB6606BA
:10132000A5EB670704EBA80405EBA905A4EB680887
:10133000A5EB690906EBAB06A7EBAA07A6EB6B0BBF
:1013400007EB6A0A458020F8044B478020F8046BBD
:10135000A0F8029020F8048BA0F802A020F804BBAB
:1013600003F1010393FAA3FC402BAFD1A0EB820160
:101370004FF0100312090FF2361000F1000006B40E
:1013800003EB430C6144A2F5803202EB8332B1F9E6
:101390000250B1F90040A1EB0301B0F902B0B0F97D
:1013A00000A000F10400A5EB040E0EFB0BFC0AEB01
:1013B0004B0E05FB0ACB04FB0ECAB1F90250B1F982
:1013C0000040A1EB0301B0F90290B0F9008000F1F8
:1013D0000400A5EB040E0EFB09FC08EB490E05FB0F
:1013E00008C904FB0EC8B1F90250B1F90040A1EBE5
:1013F0000301B0F90270B0F9006000F10400A5EB40
:10140000040E0EFB07FC06EB470E05FB06C704FBAC
:101410000EC6B1F90250B1F9004001F10001D0440B
:10142000D944A8EB4A0AA9EB4B0B4FEAA4044FEAB4
:10143000A50504EB264405EB2745A4EBE636A5EB12
:10144000E73704EB284405EB2945A4EBE838A5EB86
:10145000E93906EB2B46A7EB2A47A6EBEB3B07EB5C
:10146000EA3A4D800C8019444F800E801944A1F84F
:101470000290A1F800801944A1F802A021F804BB51
:10148000B2F5803283DA03EB430C6144A2F101022E
:101490005FEA024E18BFA0EB0C007FF476AF06BCEB
:1014A0004FEA830392087FF46AAFBDE8F08F0040F3
:1014B000000000400000004000005DDD213BA32251
:1014C0007E180000412D7EA5412D0000412D00C059
:1014D00000405DDD82E75DDD213B7EA5412D0040C2
:1014E00000000040000000400000AA2A94126B395E
:1014F000460649327C0CA8118E2349327C0CA3226B
:101500007E1821F77931AA2A9412A8118E235DDD65
:10151000213BA3227E180000412D95C6B13F461AFB
:101520002B1E58EE3735BEB4C53EA8118E235DDDA7
:10153000213B63A97138DF089A28B7CDC53E7EA547
:10154000412D0000412D00C0004063A92B1E21F752
:101550007931BEB4C53EBEB47C0C58EE373561ACB3
:10156000213B95C6BAF9BAE571383BA737355DDD41
:1015700082E75DDD213B7EA5412D21F766D756D55B
:101580003F3D3BA78E23A811C9CAB7CDC53E61AC6C
:101590007E18AA2AC1C295C6B13FBEB47C0C0040D9
:1015A000000000400000004000001E3BB504693E02
:1015B0009201C83C2403EB356409C83C24036B3911
:1015C00046066C30060E1E3BB504EB356409AA2AAC
:1015D00094126B39460649327C0CAE240917AF379A
:1015E000D607882E8D0F7E1E5D1BEB356409AA2A57
:1015F000941224188C1F1E34F10AB3269015A811DA
:101600008E2349327C0CA3227E18140B60276C3089
:10161000060E7E1E5D1B7104FB2A882E8D0F461A56
:101620002B1EC7FD5A2E9D2C1211FE15E72021F707
:101630007931AA2A9412A8118E2387F05334B22844
:101640001314480D202602EAE536B3269015DF086C
:101650009A289CE32B39AE2409177104FB2A5DDD1F
:10166000213BA3227E180000412D4ED7C53C93207C
:10167000EF198FFB6C2F78D1153E7E1E5D1B21F775
:101680007931E2CB0F3F641CC61CB8F2683395C6B3
:10169000B13F461A2B1E58EE373597C1FB3F241831
:1016A0008C1F02EAE536F0BCEC3FFE15E720BAE5F8
:1016B0007138A6B8853FD5133D2282E1DB39BEB42F
:1016C000C53EA8118E235DDD213B40B1AF3D790FB2
:1016D000DA244DD9423C2EAE423C480D202656D548
:1016E0003F3D8EAB823A140B602778D1153E63A93B
:1016F0007138DF089A28B7CDC53EB1A71236A906C2
:10170000CE2915CA4F3F78A668337104FB2A95C6C7
:10171000B13FBCA576303902212C38C3EC3F7EA501
:10172000412D0000412D00C00040BCA5CE29C7FDC1
:101730005A2EF0BCEC3F78A620268FFB6C2F09BAFE
:10174000B13FB1A73D2257F976304DB74F3F63A95E
:101750002B1E21F77931BEB4C53E8EABEF19ECF4E8
:1017600074325EB2153E2EAE9015B8F268332DB0CD
:101770003F3D40B1121187F053342EAE423CBEB40F
:101780007C0C58EE373561AC213BA6B8D6072BEC64
:101790001236C8AADB39F0BC240302EAE53663A995
:1017A000713897C16EFEDCE7B03734A8E53695C6D0
:1017B000BAF9BAE571383BA73735E2CB0FF59CE3B0
:1017C0002B3978A6683378D173F082E1DB39EDA547
:1017D00079314ED7EDEB6DDF823A99A56C2F5DDD47
:1017E00082E75DDD213B7EA5412D9CE33AE352DBA0
:1017F000B63B99A5FB2A02EA19DF4DD9423CEDA57B
:101800009A2887F026DB4ED7C53C78A6202621F7FC
:1018100066D756D53F3D3BA78E23C7FDDFD363D3A5
:10182000AF3D34A8E720710494D078D1153E63A968
:101830002B1E140B8CCD94CF723EC8AA5D1BA81131
:10184000C9CAB7CDC53E61AC7E18241850C8E2CBDA
:101850000F3F2EAE90157E1E25C615CA4F3F2DB0E8
:101860009412AE244AC451C8853F5EB28D0FAA2A95
:10187000C1C295C6B13FBEB47C0C6C308EC1E2C40F
:10188000D43F4DB76409EB35B1C038C3EC3F09BA5A
:1018900046061E3B2CC097C1FB3FF0BC2403000052
:1018A0000948804709480047FEE7FEE7FEE7FEE7F4
:1018B000FEE7FEE7FEE7FEE7FEE7FEE70448054930
:1018C000054A064B70470000CB0C000831010008A8
:1018D000C81B0020C8210020C81D0020C81D0020F2
:1018E00031490143314A1160704770B5002100232E
:1018F0000F22C47804B32D4C246804F4E064C4F5CA
:10190000E064210AC1F10403CA40447804FA03F1F7
:101910008478144021430901254C0678A1550478A8
:1019200004F01F050124AC4005786D11AD0005F1F0
:10193000E025C5F8004109E0047804F01F05012402
:10194000AC401C4D0678761145F8264070BD1A4A09
:101950000A400243154B1B1F1A60704739B1134AE6
:10196000121D12680243114B1B1D1A6006E00F4A3C
:10197000121D126882430D4B1B1D1A60704704280C
:1019800008D14FF0E021096941F004014FF0E02255
:10199000116107E04FF0E021096921F004014FF0E7
:1019A000E0221161704700000000FA050CED00E034
:1019B00000E400E080E100E080FFFF1F10B5044676
:1019C000FA48844208D10121401500F055FD00215C
:1019D000601500F051FD17E0F548844208D101215F
:1019E000001500F049FD0021201500F045FD0BE039
:1019F000F048844208D10121C80300F03DFD0021D8
:101A00004FF4004000F038FD10BD30B50246002014
:101A100000235068E84C20400D790C6844EA052406
:101A2000204350609068E54C2040D1E902542C439B
:101A30004D7944EA450420439060D06A20F4700058
:101A40000C7C641EE4B2234340EA0350D06230BDF4
:101A500000210160017141718160C1600121017447
:101A6000704721B1826842F00102826003E082681F
:101A700022F001028260704721B1826842F48072D4
:101A8000826003E0826822F480728260704710B541
:101A90000023CBB21AB144681C43446002E044689E
:101AA0009C43446010BD816841F00801816070472B
:101AB000014600208A6802F008020AB1012000E015
:101AC00000207047816841F0040181607047014641
:101AD00000208A6802F004020AB1012000E0002020
:101AE000704721B1826842F4A002826003E08268FC
:101AF00022F4A00282607047014600208A6802F446
:101B000080020AB1012000E00020704710B50A46AB
:101B100000210023416821F46041531E41EA433112
:101B2000416010BD21B1426842F40062426003E0AE
:101B3000426822F4006242607047F0B504460D46E8
:101B400000200021092D11DDE068A5F10A0606EB51
:101B50004607072606FA07F18843A5F10A0606EBB1
:101B6000460603FA06F10843E0600CE0206905EB45
:101B70004507072606FA07F1884305EB450603FAF1
:101B800006F108432061072A0FDA606B561E06EB48
:101B900086071F2606FA07F18843561E06EB8606BF
:101BA00005FA06F10843606322E00D2A0FDA206B84
:101BB000D61F06EB86071F2606FA07F18843D61FB5
:101BC00006EB860605FA06F10843206310E0E06A9A
:101BD000A2F10D0606EB86071F2606FA07F18843D9
:101BE000A2F10D0606EB860605FA06F10843E0624F
:101BF000F0BD21B1826842F48012826003E0826805
:101C000022F48012826070470146C86C80B270472F
:101C100066484C300068704721B1426842F48062E7
:101C2000426003E0426822F480624260704721B162
:101C3000426842F48052426003E0426822F48052DB
:101C4000426070470A460021816821F4E041114357
:101C50008160704721B1826842F40042826003E0F3
:101C6000826822F400428260704721B1826842F4A7
:101C70000212826003E0826822F4021282607047DE
:101C8000014600208A6802F400120AB1012000E037
:101C900000207047F0B504461546002000220026BB
:101CA000092911DDE068A1F10A0707EB470C0727B6
:101CB00007FA0CF29043A1F10A0707EB470703FA72
:101CC00007F21043E0600CE0206901EB410C0727AC
:101CD00007FA0CF2904301EB410703FA07F21043B5
:101CE0002061A06BC0F30156EF1C06F1010CA7EBBD
:101CF0000C0707EB870C1F2707FA0CF29043EF1C29
:101D000006F1010CA7EB0C0707EB870701FA07F2B6
:101D10001043A063F0BD10B50A4600210023816B7B
:101D200021F44011531E41EA0351816310BD08B5EF
:101D3000002300930090009B0B440093009B1A60CB
:101D400008BD08B5024600200090009201F128006D
:101D5000009B184400900098006880B208BD0A46B5
:101D600000214168164B19401143416070474162A0
:101D7000826270470A460021416821F01F01114329
:101D80004160704740B109490831096841F40001D8
:101D9000064A0832116007E004490831096821F455
:101DA0000001024A0832116070470000002401401F
:101DB00000280140003C0140FFFEF0FFFDF7F1FF6D
:101DC000FFFD3FFF0246002013680B400BB10120CE
:101DD00000E000207047CA430260704770B50246B9
:101DE0000020002300240B125568CEB205EA060439
:101DF00015681D4015B10CB1012000E0002070BD38
:101E000000220A12D34303607047000010B5044655
:101E1000CC48844208D10121042000F02DFB002190
:101E2000042000F029FB46E0C748844208D1012184
:101E3000082000F021FB0021082000F01DFB3AE003
:101E4000C248844208D10121102000F015FB002176
:101E5000102000F011FB2EE0BD48844208D1012182
:101E6000202000F009FB0021202000F005FB22E0EB
:101E7000B848844208D10121402000F0FDFA002139
:101E8000402000F0F9FA16E0B348844208D101215D
:101E9000802000F0F1FA0021802000F0EDFA0AE045
:101EA000AE48844207D10121801500F0E5FA0021F7
:101EB000A01500F0E1FA10BD10B50121084600F0B0
:101EC000DBFA0021012000F0D7FA10BD2DE9F04126
:101ED000024600250026002000230024002791F858
:101EE00003C00CF00F0591F803C00CF0100CBCF10E
:101EF000000F03D091F802C04CEA050591F800C02C
:101F0000BCF1000F31D0146800202BE04FF0010C21
:101F10000CFA00F3B1F800C00CEA03069E4220D18F
:101F200083004FF00F0C0CFA03F7BC4305FA03FCD7
:101F30004CEA040491F803C0BCF1280F06D14FF01D
:101F4000010C0CFA00FCC2F814C00AE091F803C0BE
:101F5000BCF1480F05D14FF0010C0CFA00FCC2F89F
:101F600010C0401C0828D1D31460B1F800C0BCF1E7
:101F7000FF0F34DD546800202EE000F1080C4FF014
:101F8000010808FA0CF3B1F800C00CEA03069E42FF
:101F900021D183004FF00F0C0CFA03F7BC4305FA74
:101FA00003FC4CEA040491F803C0BCF1280F05D1EE
:101FB00000F1080C08FA0CF8C2F8148091F803C07C
:101FC000BCF1480F07D100F1080C4FF0010808FAE6
:101FD0000CF8C2F81080401C0828CED35460BDE82D
:101FE000F0814FF6FF710180022181700421C170E0
:101FF00070470246002093680B400BB1012000E0BF
:10200000002070470146886880B270470246002071
:10201000D3680B400BB1012000E00020704701465F
:10202000C86880B2704701617047416170470AB16A
:10203000016100E041617047C16070474FF4803238
:102040000A438261816182618269826970470246C6
:102050000020434B18684FF68073184040EA021086
:1020600008433F4B186070473E49C8617047F0B560
:102070000A46002300240021002500F00046B6F1A6
:10208000004F02D1364EF16901E0354E7168C0F360
:10209000034583B200F44016B6F5401F08D121F085
:1020A00070612F4E766826F070662D4F7E6012E0CC
:1020B00000F48016B6F5801F06D1032606FA05F453
:1020C000A14341F0706106E0460D360103FA06F6C1
:1020D000B14341F0706122B1460D360103FA06F6B4
:1020E000314300F00046B6F1004F02D11C4EF161C1
:1020F00001E01B4E7160F0BD30B500228B071C0F54
:102100000F2303FA04F2164B08338C1053F82430D3
:102110009343134C08348D1044F8253023468C101B
:1021200053F824308C07240F00FA04F423430C4C9A
:1021300008348D1044F8253030BD0A49DC31086080
:102140007047000000080140000C014000100140F1
:102150000014014000180140001C01400020014013
:102160000000014000002042DF48006840F001000C
:10217000DD49086008464068DC490840DA494860A3
:1021800008460068DA490840D749086008460068F0
:1021900020F4802008600846406820F4FE00486073
:1021A0004FF41F0088607047CF49096821F48031DF
:1021B000CD4A11601146096821F480211160B0F503
:1021C000803F03D0B0F5802F0ED106E0C6490968E4
:1021D00041F48031C44A116007E0C349096841F401
:1021E000A021C14A116000E000BF00BF704710B5D8
:1021F00001460022002300204A11012A02D1BA4CD4
:10220000236806E0022A02D1B74C236A01E0B64CEB
:10221000636A01F01F02012494401C400CB10120AC
:1022200000E0002010BD38B50020009000240025FB
:1022300000BF3120FFF7DBFF05460098401C0090EF
:102240000098B0F5A06F01D0002DF2D03120FFF73B
:10225000CEFF08B1012400E00024204638BD01462D
:102260000020A14A106820F0F80040EAC100106088
:102270007047A04908607047024600209A4B586892
:1022800020F47C1042EA01031843974B58607047D2
:1022900098490866704701460020934A506820F02C
:1022A00003000843506070478F48406800F00C00FE
:1022B0007047014600208C4A506820F0F000084327
:1022C0005060704701460020874A506820F4E06063
:1022D00008435060704701460020834A506820F44C
:1022E000605040EAC1005060704729B17E4A527A7E
:1022F00002437D4B5A7204E07B4A527A82437A4B06
:102300005A7270477B49D8310860704701460020F7
:10231000754A506820F440400843506070470021DF
:10232000714A20321170704A82F82010012802D0C0
:1023300004280AD104E001216B4A2032117005E023
:102340000521694A2032117000E000BF00BF7047CC
:102350006949086070476449096A0143624A116229
:102360007047654944390860704730B50021002244
:10237000002400235C4D6D6805F00C0121B1042997
:1023800005D0082923D105E05C4D056022E05B4DB6
:1023900005601FE0544D6D6805F47012524D6D6874
:1023A00005F48034022505EB92421CB9544D554387
:1023B00005600BE04C4D6D6805F400351DB1504DC6
:1023C0005543056002E04D4D5543056002E04B4D1D
:1023D000056000BF00BF444D6D6805F0F0010909BC
:1023E000484D6B5C0568DD4045603F4D6D6805F408
:1023F000E061090A434D6B5C4568DD4085603A4DFC
:102400006D6805F46051C90A3E4D6B5C4568DD405E
:10241000C560354D6D6805F44041890B3A4D6B5CE4
:10242000C568B5FBF3F5056130BD29B12E4A526987
:1024300002432D4B5A6104E02B4A526982432A4BD6
:102440005A61704729B1284A92690243264B9A6122
:1024500004E0254A92698243234B9A61704729B16F
:10246000214AD2690243204BDA6104E01E4AD26954
:1024700082431D4BDA61704729B11B4AD26802437F
:10248000194BDA6004E0184AD2688243164BDA60CE
:10249000704729B1144A12690243134B1A6104E0D0
:1024A000114A12698243104B1A6170471249403930
:1024B000086070470F49C86470470B49C87170477E
:1024C0000948406A40F080700749486270470146F9
:1024D0000020054A92680A400AB1012000E000206D
:1024E0007047014988727047001002400000FFF8F1
:1024F000FFFFF6FE000042428004424200127A00D2
:1025000000093D00581000206810002010B5044656
:10251000FE48844208D10121C014FFF7ADFF00211D
:10252000E014FFF7A9FFC4E0B4F1804F08D1012106
:102530000846FFF7AEFF00210120FFF7AAFFB8E031
:10254000F348844208D101210220FFF7A2FF0021B5
:102550000220FFF79EFFACE0EE48844208D1012143
:102560000420FFF796FF00210420FFF792FFA0E070
:10257000E948844208D101210820FFF78AFF0021A1
:102580000820FFF786FF94E0E448844208D1012147
:102590001020FFF77EFF00211020FFF77AFF88E070
:1025A000DF48844208D101212020FFF772FF00217B
:1025B0002020FFF76EFF7CE0DA48844208D1012139
:1025C0004014FFF759FF00216014FFF755FF70E03A
:1025D000D548844209D10121C804FFF74DFF0021ED
:1025E0004FF40020FFF748FF63E0D048844209D150
:1025F00001210805FFF740FF00214FF48010FFF78D
:102600003BFF56E0CA48844209D101214805FFF743
:1026100033FF00214FF40010FFF72EFF49E0C548BB
:10262000844208D101214020FFF733FF00214020E0
:10263000FFF72FFF3DE0C048844208D101218020F0
:10264000FFF727FF00218020FFF723FF31E0BB4881
:10265000844208D101218015FFF71BFF0021A0153E
:10266000FFF717FF25E0B648844209D1012108048D
:10267000FFF702FF00214FF48030FFF7FDFE18E066
:10268000B048844209D101214804FFF7F5FE00213A
:102690004FF40030FFF7F0FE0BE0AB48844208D166
:1026A00001218804FFF7E8FE00214FF48020FFF7A6
:1026B000E3FE10BD00220288944B98420ED0994B45
:1026C00098420BD0B0F1804F08D0914B984205D082
:1026D000904B984202D0904B984204D14FF68F73A2
:1026E0001A404B881A438D4B984207D08C4B984226
:1026F00004D04FF6FF431A40CB881A4302808B88E0
:1027000083850B880385814B98420BD0854B98427B
:1027100008D08B4B984205D08A4B984202D08A4B06
:10272000984201D10B7A038601238382704770B5EA
:10273000002400220023058C4FF6FE7635400584E8
:10274000028C8388048B4FF68F752C40B51E2C406D
:102750000D882C43751E2A400D892A434D882A4333
:102760006A4DA8420BD06F4DA84208D0744DA842C4
:1027700005D0744DA84202D0734DA84213D14FF634
:10278000F7752A404D892A434FF6FB752A408D88FC
:102790002A434FF6FF652B404FF6FF552B408D899E
:1027A0002B43CD892B4383800483CD888586028487
:1027B00070BD70B5002400220023058C4FF6EF7623
:1027C00035400584028C8388048B48F6FF752C40C5
:1027D0004FF6FF452C400D884FF6FF7606EA05259B
:1027E0002C434FF6DF752A400D8906EA05152A436A
:1027F0004D8806EA05152A43444DA84202D0494DAA
:10280000A8421DD14FF67F752A404D894FF6FF76BD
:1028100006EA05152A434FF6BF752A408D8806EA59
:1028200005152A434FF6FF352B404FF2FF752B401D
:102830008D8906EA85052B43CD8906EA85052B435C
:1028400083800483CD880587028470BD70B5002421
:1028500000220023058C4FF6FF6635400584028C6C
:102860008388848B4FF68F752C404FF6FC752C4077
:102870000D882C434FF6FF552A400D894FF6FF7601
:1028800006EA05252A434D8806EA05252A431F4DF9
:10289000A84202D0234DA8421DD14FF2FF752A4015
:1028A0004D894FF6FF7606EA05252A434FF6FF3598
:1028B0002A408D8806EA05252A434EF6FF752B40EF
:1028C0004DF6FF752B408D8906EA05152B43CD8902
:1028D00006EA05152B4383808483CD88858702848F
:1028E00070BD70B5002200230024058C4EF6FF76E3
:1028F00035400584038C8488828B48F6FF752A4016
:102900004FF6FF452A400D8820E00000002C0140D2
:102910000004004000080040000C0040001000408F
:102920000014004000340140004C014000500140C0
:102930000054014000180040001C004000200040EE
:102940000040014000440140004801404FF6FF763E
:1029500006EA05252A434DF6FF752B400D8906EA48
:1029600005352B434D8806EA05352B43FA4DA84221
:1029700002D0FA4DA84208D14BF6FF752C408D8944
:102980004FF6FF7606EA85152C4384808283CD8836
:10299000A0F84050038470BD828B4FF2FF331A4081
:1029A0008283828B4FF6FF7303EA01231A438283EB
:1029B0007047F0B50C461546002200210026078C12
:1029C0004EF6FF7C07EA0C070784828B018C4FF6DA
:1029D000FF7707EA043640F6FF473A404FF6FF77A5
:1029E00007EA05273A434FF6FF7707EA03373A43EA
:1029F000D94FB8420ED0D94FB8420BD0B0F1804F6A
:102A000008D0D74FB84205D0D64FB84202D0D64FE3
:102A1000B84206D14DF6FF77394046F48057394326
:102A200005E047F6FF57394044F480573943828325
:102A30000184F0BD828B4FF6F3731A408283828B40
:102A40000A4382837047F0B50C46154600220021E8
:102A50000026078C4FF6FF6C07EA0C070784828B71
:102A6000018C4FF6FF7707EA04264FF60C773A40C1
:102A70004FF6FF7707EA03172F433A43B64FB842A2
:102A80000ED0B64FB8420BD0B0F1804F08D0B44F43
:102A9000B84205D0B34FB84202D0B34FB84206D1C6
:102AA0004FF6FF57394046F48077394305E04FF23F
:102AB000FF57394044F48077394382830184F0BD65
:102AC000028B4FF2FF331A400283028B4FF6FF73E3
:102AD00003EA01231A4302837047F0B50C461546FA
:102AE000002200210026078C4FF6EF7C07EA0C0736
:102AF0000784028B018C4FF6FF7707EA041640F635
:102B0000FF473A404FF6FF7707EA03373A434FF65D
:102B1000FF7707EA05273A438F4FB8420ED08F4F11
:102B2000B8420BD0B0F1804F08D08D4FB84205D0DD
:102B30008C4FB84202D08C4FB84206D14FF6DF77A7
:102B4000394046F01007394305E04FF65F773940CA
:102B500044F01007394302830184F0BD028B4FF625
:102B6000F3731A400283028B0A4302837047F0B565
:102B70000C46154600220021068C4FF6FE773E409B
:102B80000684028B018C4FF60C7632407E1C06EADE
:102B900003162E433243704EB0420ED06F4EB042F9
:102BA0000BD0B0F1804F08D06D4EB04205D06D4EC5
:102BB000B04202D06C4EB04206D14FF6FD763140A5
:102BC00044F00106314305E04FF6F576314044F01C
:102BD0000106314302830184F0BD70B505460C4601
:102BE0005D4885420ED05D4885420BD0B5F1804FDF
:102BF00008D05B48854205D05A48854202D05A48E1
:102C0000854200D100E000BF208850B92389A28806
:102C100061882846FFF7ABFFE1882846FFF79EFF53
:102C200025E0208804280AD12389A28861882846C3
:102C3000FFF753FFE1882846FFF742FF17E020889F
:102C400008280AD12389A28861882846FFF7FBFE5D
:102C5000E1882846FFF7EEFE09E02389A288618813
:102C60002846FFF7A6FEE1882846FFF795FE70BDCF
:102C70002DE9F04105460C4600260127608808B979
:102C8000022600E00026A088012801D1022700E0EA
:102C900001272088A0B92389A28861882846FFF7E8
:102CA00066FFE1882846FFF759FF23893A463146F7
:102CB0002846FFF712FFE1882846FFF701FF13E0DF
:102CC0002389A28861882846FFF707FFE188284604
:102CD000FFF7F6FE23893A4631462846FFF747FFBD
:102CE000E1882846FFF73AFFBDE8F0810A884B8863
:102CF0001A438B881A43CB881A430B891A434B8992
:102D00001A438B891A43A0F8442070474FF6FF718D
:102D1000818000210180C1804180017270470021C3
:102D2000018041808180C180018141818181C18197
:102D30007047002101804180012181800021C180F4
:102D4000018170470021018041808180C180018123
:102D50004181818170470000002C01400034014016
:102D60000004004000080040000C004021B102882F
:102D700042F00102028004E002884FF6FE731A401E
:102D80000280704731B1B0F8442042F40042A0F80C
:102D9000442005E0B0F84420C2F30E02A0F844201D
:102DA00070471AB183890B43838102E083898B4387
:102DB000838170478182704741EA0203A0F848305E
:102DC00070471AB183890B43838102E083898B4367
:102DD0008381704701894FF6F87211400181704775
:102DE0000A46002101894FF68F7319401143018172
:102DF000704730B504460D4629462046FFF7F0FFE0
:102E0000208940F00700208130BD2DE9F0410446C3
:102E10000D4616461F46602D06D13B46012231461F
:102E20002046FFF75AFE05E03B4601223146204688
:102E3000FFF79DFE29462046FFF7D2FF208940F08C
:102E400007002081BDE8F08130B50C4600210189E2
:102E5000C9B24FF6FF7505EA0325154325432943FB
:102E6000018130BD2DE9F04105460E4617469846D2
:102E7000002443463A4631462846FFF7E5FF2C89B1
:102E80004FF6F870044044F007044FF68F7004408A
:102E900044F070042C81BDE8F081F0B504460D4685
:102EA00016461F463B46324629462046FFF7CCFFD2
:102EB000208940F480402081F0BD018582827047E6
:102EC0000A46002101884FF68F7319401143018093
:102ED0007047F0B50C4615461E460021002200231F
:102EE0000189028B038C4FF6F877394021434FF666
:102EF000FC473A4040F201173A434FF6DD773B403A
:102F00004FF6FF7707EA06172F433B430181028301
:102F10000384F0BD0A460021018B4FF68F731940E0
:102F20001143018370470A460021018B48F6FF7365
:102F300019404FF6FF7303EA0223194301837047D8
:102F40000A460021818B4FF68F731940114381830C
:102F500070470A460021818B48F6FF7319404FF6EF
:102F6000FF7303EA022319438183704721B102886A
:102F700042F08002028004E002884FF67F731A401C
:102F80000280704721B1828842F00402828004E00E
:102F900082884FF6FB731A408280704721B1828885
:102FA00042F00802828004E082884FF6F7731A40EC
:102FB0008280704721B1828842F00102828004E061
:102FC00082884FF6FE731A40828070470A460021BD
:102FD000018B4FF6F77319401143018370470A467E
:102FE0000021018B4FF2FF7319404FF6FF7303EA84
:102FF00002231943018370470A460021818B4FF653
:10300000F77319401143818370470A460021818B71
:103010004FF2FF7319404FF6FF7303EA022319437F
:10302000818370470A460021018B4FF6FB731940DC
:103030001143018370470A460021018B4FF6FF338D
:1030400019404FF6FF7303EA0223194301837047C7
:103050000A460021818B4FF6FB731940114381838F
:1030600070470A460021818B4FF6FF3319404FF617
:10307000FF7303EA02231943818370470A46002144
:10308000018B4FF67F7319401143018370470A4645
:103090000021018BC1F30E014FF6FF7303EA0223F7
:1030A0001943018370470A460021818B4FF67F73D5
:1030B00019401143818370470A460021818BC1F377
:1030C0000E014FF6FF7303EA022319438183704711
:1030D0000A460021018C4FF6FD731940114301840B
:1030E00070470A460021018C4FF6F77319401143CF
:1030F000018470470A460021018C4FF6DF731940A6
:103100004FF6FF7303EA02131943018470470A461E
:103110000021018C4FF67F7319404FF6FF7303EACD
:1031200002131943018470470A460021018C4FF6AF
:10313000FF5319404FF6FF7303EA0223194301843A
:1031400070470A460021018C4FF2FF7319404FF679
:10315000FF7303EA02231943018470470A460021E2
:10316000018C4DF6FF7319404FF6FF7303EA0233EB
:1031700019430184704730B5002301248C40A3B269
:10318000048C9C430484048C02FA01F5ADB22C43F8
:10319000048430BD30B5002304248C40A3B2048CD9
:1031A0009C430484048C02FA01F5ADB22C430484E0
:1031B00030BD70B5034600200024184618300125A4
:1031C0008D40ACB21D8CA5431D8409B1082909D1DD
:1031D00000EB6100056825F0700505600568154382
:1031E00005600EE00D1FC5F34E052844056825F463
:1031F000E045056005684FF6FF7606EA022635438E
:10320000056070BD21B1028842F00202028004E034
:1032100002884FF6FD731A400280704721B1028880
:1032200042F00402028004E002884FF6FB731A4069
:103230000280704721B1828842F08002828004E0DF
:1032400082884FF67F731A408280704702884FF65B
:10325000F7731A40028002880A430280704782880E
:103260004FF68F731A40828082880A4382807047AB
:1032700002894FF6F8731A40028102890A430281DB
:10328000704702894FF67F731A40028102890A4310
:1032900002817047818470478185704781867047BD
:1032A0000187704781877047A0F8401070470288F7
:1032B0004FF6FF431A40028002880A43028070479B
:1032C0000146888E70470146088F70470146888FF7
:1032D00070470146B1F8400070470146888C70473E
:1032E0000146088D704702460020138A0B400BB13F
:1032F000012000E000207047CA430282704730B5C9
:103300000246002000230024158A05EA010395895E
:1033100005EA010413B10CB1012000E0002030BD2A
:10332000CA4302827047000010B50446FB4884423D
:1033300009D101218803FFF79FF800214FF4804055
:10334000FFF79AF832E0F648844209D10121480497
:10335000FFF79FF800214FF40030FFF79AF825E0BF
:10336000F048844209D101218804FFF792F8002136
:103370004FF48020FFF78DF818E0EB48844209D124
:103380000121C804FFF785F800214FF40020FFF762
:1033900080F80BE0E548844208D101210805FFF7D9
:1033A00078F800214FF48010FFF773F810BD2DE975
:1033B000F04786B005460E460024A24600BFA1464F
:1033C0000027B08900B100BF2F462C8A4CF6FF7051
:1033D0000440F08804432C82AC894EF6F31004407C
:1033E000B08831890843718908430443AC81AC8AB1
:1033F0004FF6FF400440B0890443AC8201A8FEF7B9
:10340000B4FFC648874202D1DDF810A001E0DDF824
:103410000CA0A88900F4004040B10AEBCA0000EB00
:103420000A1031684900B0FBF1F807E00AEBCA0066
:1034300000EB0A1031688900B0FBF1F86420B8FB9A
:10344000F0F004012009642101FB1089A88900F42F
:10345000004040B1322000EBC900B0FBF1F000F0B9
:103460000700044308E0322000EB09106421B0FBA0
:10347000F1F000F00F0004432C8106B0BDE8F087A6
:103480004FF41651016000218180C18001810C211F
:10349000418100218181704710B502460020108AC9
:1034A0004FF2FF0318400B884C8823438C8823433A
:1034B000CC8823431843108210BD00210180418035
:1034C0008180C180704721B1828942F4005282819B
:1034D00004E082894DF6FF731A4082817047F0B58F
:1034E0000346002400260025002040F66A17B94252
:1034F00000D100BF1846C1F3421401F01F06012796
:1035000007FA06F5012C01D10C3004E0022C01D1A0
:10351000103000E014301AB107682F43076002E052
:103520000768AF430760F0BD1AB1838A0B438382FB
:1035300002E0838A8B4383827047028A4FF6F073DE
:103540001A400282028A0A430282704782894FF23D
:10355000FF731A40828182890A438281704721B1B8
:10356000828942F00202828104E082894FF6FD7373
:103570001A4082817047028A4FF6DF731A40028236
:10358000028A0A430282704721B1028A42F48042D1
:10359000028204E0028A4BF6FF731A4002827047EF
:1035A000C1F308028280704701468888C0F3080092
:1035B0007047818941F0010181817047028BD2B24D
:1035C0000283028B42EA012202837047028B02F4DB
:1035D0007F420283028B0A430283704721B1828AB1
:1035E00042F02002828204E0828A4FF6DF731A40A2
:1035F0008282704721B1828A42F01002828204E006
:10360000828A4FF6EF731A408282704721B1828A14
:1036100042F00802828204E0828A4FF6F7731A4071
:103620008282704721B1828942F40042828103E0A4
:103630008289C2F30E028281704721B1828A42F4EC
:103640000062828204E0828A4FF2FF731A40828213
:103650007047828A4FF6FB731A408282828A0A433D
:103660008282704721B1828A42F00202828204E0A3
:10367000828A4FF6FD731A4082827047024600200C
:10368000B1F5007F00D100BF13880B400BB10120C2
:1036900000E00020704701F40072B2F5007F00D115
:1036A00000BFCA430280704770B502460024002361
:1036B0000025002040F66A16B14200D100BFC1F3D8
:1036C000421501F01F03012606FA03F3012D02D172
:1036D0009689334006E0022D02D1168A334001E07C
:1036E000968A33400C12012606FA04F416883440F8
:1036F00013B10CB1012000E0002070BD10B5002214
:10370000002340F66A14A14200D100BF0A1201242E
:103710009440A3B2DC43048010BD00000038014097
:103720000044004000480040004C00400050004071
:1037300010B56FF00400FEF722F92E4800682E49FC
:10374000B0FBF1F02D4908700846007800EB40010D
:10375000C1EBC0104FF6FF7101EAC0002849088094
:1037600010BD0146254A12784A434FF0E0235A61C2
:1037700000229A611A46126942F001021A6100BFE2
:103780004FF0E022106900F001021AB100F480321B
:10379000002AF5D04FF0E022126922F001024FF02A
:1037A000E0231A6100229A6170470146144A128888
:1037B0004A434FF0E0235A6100229A611A46126987
:1037C00042F001021A6100BF4FF0E022106900F0E0
:1037D00001021AB100F48032002AF5D04FF0E02245
:1037E000126922F001024FF0E0231A6100229A616F
:1037F000704700003C10002000127A006C1000207E
:103800006E100020704700000FB41CB5074B06AACD
:103810007B4469460090059800F06DFB00206946E6
:1038200000F07CFB1CBC5DF814FB000009070000E5
:1038300070B50C460546012A05D02878800600D5CB
:10384000EA69002302E0012305E05B1C934202D2F7
:10385000E05C0028F9D1A869E618C01AA861286AB6
:10386000184428622846AFF3008004E0D5E901211E
:1038700014F8010B9047B442F8D32846AFF3008008
:1038800070BD00002DE9F04106460024106875293E
:10389000314615A510D0AFF30080002802DA40426F
:1038A00012A507E031688A0701D511A502E0490792
:1038B00004D510A5012401E0AFF3008000210A2304
:1038C00006F1240707E0B0FBF3F203FB12003030EF
:1038D00078541046491C0028F5D123462A46304624
:1038E000BDE8F04100F09EB8000000002D0000008F
:1038F0002B000000200000002DE9F0474FF0000AE7
:1039000089460446C0F820A02046E1688847002880
:1039100076D0252806D0D4E901219047206A401CA2
:103920002062F1E7E168204600258847C4F81CA022
:1039300006460027C4F818A02A2E09D0304601F008
:1039400042F838B304EB8708303EC8F8186019E035
:1039500059F8041B204604EB87029161E16888470F
:10396000012F064618D1E069002820DA25F020054D
:103970001DE0D8F8180000EB800006EB400030385E
:10398000C8F818002046E1688847064601F01BF891
:103990000028EED1012F0AD02E2E08D12046E16852
:1039A00088477F1C0646022F45F02005C4DBA0692E
:1039B000002803DA404245F00105A061E80701D084
:1039C00025F01005B6B1A6F14100192802D820361D
:1039D00045F400654A463146204625604D46FCF7D1
:1039E00005FC58B1012806D0ED1D25F0070000F1B7
:1039F000080989E704E005F1040985E730468AE70C
:103A0000206ABDE8F087704770477047704710B56F
:103A100000F0A4FA006810BD10B5044600F09EFA4C
:103A2000046010BD2DE9F0470D46994692460446C4
:103A300000F124080168880604D5E06921F010012E
:103A4000216000E00120A84201DD471B00E00027C3
:103A5000A1697A1902EB0900081AA0612078C00652
:103A600002D42046AFF30080002608E0D4E901210B
:103A70001AF806009047206A401C761C20624E45CA
:103A8000F4DB2078C0060AD52046AFF3008006E0BC
:103A9000D4E9012130209047206A401C2062381E62
:103AA000A7F10107F4DC07E0D4E9012118F80500CB
:103AB0009047206A401C2062281EA5F10105F3DC16
:103AC0002046AFF300802078000602D50220BDE832
:103AD000F0870120FBE770472DE9FF4F0C461E469B
:103AE0004FF0FF378BB0D2E90001DDF860800A901B
:103AF0008A46C1F30A5505B93D46002108464FF0F4
:103B00000000BAF1000F00F4400005DA00EB80007D
:103B10004FF4400101EA50004FEA9059B9F1010F0A
:103B200000DDB9460A9850EA4A000ED044F610501B
:103B3000A5F2FF3545432F14B8F1000F1ED0754292
:103B4000291E1EDDC9F100021CE0B8F1010F4FF083
:103B5000000001D0302103E0F24305E02154401C75
:103B6000B042FBDB30460022002121540B99C1F802
:103B70000880C1E900200FB0BDE8F08FBD1B6D1CAF
:103B8000DEE74A4600DA694206A800F071FA06ABA1
:103B900093E8070003AB83E8070050460A9900F05A
:103BA00043FB8DE80700A0F500501F3800900398F4
:103BB000002D09DD42F21F014A46084403A9039083
:103BC000684600F0A2FD08E0A0F500504A461F3804
:103BD00003A90390684600F0ACFD8DE807000004DF
:103BE000000C03D04FF0FF30410800E01046B8F160
:103BF000000F03D00022009215461EE0751E05D46A
:103C000000F0B0F9303262556D1EF9D5B34601228D
:103C1000084302D000227F1C04E02078302801D124
:103C200000227F1E002A099786D01DE0112D07DA99
:103C300000F098F9303262556D1C50EA0102F5D15E
:103C4000084302D00098C8B10EE00021681E05E0CC
:103C5000235C625C63542254401E491C8142F7DBA2
:103C6000AB46A81B401E0990002004F80B000B98DF
:103C7000099AC0F80880C0E9002B7CE711264FF0B4
:103C8000000859E72DE9F04F88460446D21D22F07E
:103C9000070191B0D1E90001CDE90A0100F07FFEF2
:103CA00002460B98C00F01D02D2007E02068810745
:103CB00001D52B2002E0202101EAC000032A09904F
:103CC00001D0072A05DB03464146204600F090F963
:103CD00009E12078800601D5E06900E00620B8F10E
:103CE000650F814606D0B8F1660F18D0B8F1670F9E
:103CF00070D131E00020B9F1110F009001DB1123E8
:103D000001E009F101030AAA01A90CA8FFF7E4FEEA
:103D1000DDE90C70002609F10105834647E001202A
:103D20004B4600904FF000470AAA01A90CA8FFF7E4
:103D3000D3FEDDE90DB00C995D46002610B909F1FE
:103D400001000D18B9EB050003D4C0F1FF3609F1ED
:103D50000105A5EB09002BE0B9F1010F01DA4FF0E5
:103D600001090020B9F1110F0090484601DD11232F
:103D700000E003460AAA01A90CA8FFF7ADFEDDE9A1
:103D80000C704D4600268346207800070AD4AB45C8
:103D900000DA5D4601A8012D04DD411911F8011C6E
:103DA000302907D04F4502DA17F1040F04DA012059
:103DB00082460FE06D1EEEE7002F02DCED1B3E4455
:103DC00003E0781CA84200DD7D1CB81B00F1010A4D
:103DD0004FF000472078000703D4AA4501DB4FF0DD
:103DE000FF3A0021B7F1004F0DF143088DF8431061
:103DF00022D002202B23002F01DA7F422D234FF007
:103E00000A0C011EA0F1010000DC47B197FBFCF198
:103E10000CFB11720F46303208F8012DF1E7A8F1C2
:103E2000010003702188090501D5452100E06521C5
:103E3000A0F1010800F8011C09980FA9A1EB0807DF
:103E4000FF1D00B10120411901EBEA70A16938445E
:103E5000081A401EA0612078C00602D42046AFF3A5
:103E60000080099828B1D4E901219047206A401CBC
:103E700020622078C00622D52046AFF300801EE0E5
:103E8000002E04DBB34502DD01A8805D00E0302098
:103E9000D4E901219047206A401C2062761CAAF1D7
:103EA00001005FEA000A0AD100F054F8C068016816
:103EB000405CD4E901219047206A401C2062281E02
:103EC000A5F10105DCDC07E0D4E9012118F8010BBC
:103ED0009047206A401C2062381EA7F10107F3DCDE
:103EE0002046AFF30080022011B045E601694A1C6C
:103EF00002610878704700B58FB0CDE9013100212B
:103F0000059105497944CDE9031011466846FFF74C
:103F1000F3FC0FB000BD0000E5FFFFFF0A6802F8E8
:103F2000010B0A60704710B5436913B1AFF300800D
:103F300001E0FFF77DFC012010BD127800F12401A3
:103F40000A7000224A700122EDE711684FF0FF323B
:103F5000E9E7000000487047841B002000487047D4
:103F6000641B002030B5B0F10A024FEA900E71F1E7
:103F700000034EEA817EB0EB0E0061EB91014FEA47
:103F8000101E4EEA017E10EB0E0041EB11114FEABC
:103F9000102E4EEA016E10EB0E0041EB11214FEA9C
:103FA000104E4EEA014E10EB0E0041EB114140184D
:103FB00041F100014FEAD00040EA41704FEAD101DF
:103FC00010EB80054FEA810444EA907444EB01044D
:103FD0006D1944EB0404521BA3414FF0000348BF8A
:103FE0000A3200D530BD401C41F1000130BD000057
:103FF0002DE9F0411F46044603260168072A01F413
:10400000006004DB08B116A505E016A503E008B1C1
:1040100015A500E015A521F010002060A069C01EC4
:10402000A0610FB1401EA0612046AFF300804FB1E8
:10403000D4E9012138469047206A401C2062C01C08
:10404000206206E0206AFAE7D4E9012115F8010BA5
:104050009047761EF8D22046AFF30080BDE8F0818D
:104060004E414E006E616E00494E4600696E66001C
:104070002DE9F047814616468AB0324878440DC88B
:104080008DE80D002F487844801C03AC0DC884E8EF
:104090000D0041F69B303722014491FBF2F0A0F174
:1040A000800502FB10141B3C02D56442012000E095
:1040B0000020DFF890A080460027FA44AAF1BA0A4F
:1040C0000DE0E00709D03246684607EB47010AEBEE
:1040D000810100F02EFB8DE8070064107F1C002C8E
:1040E000EFD1184F7F44A83F18E0E80714D007EB42
:1040F00004100DF1180A90E80E008AE80E00C0685E
:10410000F04201D198190890324606A903A800F0A0
:1041100010FB03AB83E807006D10641C002DE4D195
:1041200032466946B8F1000F03A802D000F0EDFA5C
:1041300001E000F0FEFAC9E90001C9F808200AB060
:10414000BDE8F0873018000000487047641B00206D
:104150007546FFF7F9FFAE4605006946534620F065
:104160000700854618B020B5FDF7A8FBBDE8204044
:104170004FF000064FF000074FF000084FF0000B23
:1041800021F00701AC46ACE8C009ACE8C009ACE8D6
:10419000C009ACE8C0098D4670470446AFF3008003
:1041A0002046FCF743F800004FF0013C50F8042B88
:1041B00051F8043B9A4221D1A2EB0C03934313EA3A
:1041C000CC1317D150F8042B51F8043B9A4215D167
:1041D000A2EB0C03934313EACC130BD150F8042B3E
:1041E00051F8043B9A4209D1A2EB0C03934313EA22
:1041F000CC13DBD04FF00000704700BFD01A01BADB
:10420000B1FA81F101F0180122FA01F0CB40C1F1BD
:104210002001DBB2C0B2C01A2CFA01F3D11A9143CB
:1042200011EAC311E6D170475FEA400C08BF91F074
:10423000000F4FEA8C234FEAC12243EA51514FEA63
:104240001C5018BF00F5F0404FEA300018BF41F095
:1042500000415FEA6C5C00F02980BCF1FF3F08BFC1
:1042600040F080407047130C06BF12044FF0100C52
:104270004FF0000C130E04BF12020CF1080C130FC8
:1042800004BF12010CF1040C930F04BF92000CF157
:10429000020CD30F04BF52000CF1010C11464FF079
:1042A0000002A0F11F00A0EB0C00704711F0004FBE
:1042B00008BF704731F000413FF4D5AF0B0C06BF8B
:1042C00009044FF0100C4FF0000C0B0E04BF090254
:1042D0000CF1080C0B0F04BF09010CF1040C8B0F3F
:1042E00004BF89000CF1020CCB0F04BF49000CF194
:1042F000010CCCF12003A0EB0C0022FA03F302FA2C
:104300000CF241EA030100F10100704720F07F4CFC
:1043100080EA030023F07F47ACEB070303F57C53EF
:1043200000F0004003F1FF032DE980494FEA154BEF
:1043300009B44FEA144325EA0B4E24EA03480FF26E
:10434000042606EB132749083E785FEA320203FB96
:104350000667C7F5000707FB06F64FEA54374FEA32
:10436000D64606F1020607FB066CCCF1005C4FEA6C
:104370001C472CEA074C07FB06F40CFB06F504EB84
:1043800015464FEA961634BF00204FF000404FEA22
:10439000D13706FB07FC4FEA1C4C0CFB0BF7D21B7A
:1043A00003FB0CF761EB07010CFB0EF7B0EB0740CA
:1043B00072EB17420CFB08F734BFA2EB0742B2EBDB
:1043C000074261EB17414FEA0C444FEA910706FBA5
:1043D00007FC4FEA1C4C0CFB0BF7B0EBC74072EB31
:1043E000573203FB0CF734BFA2EBC742B2EBC74214
:1043F00061EB57310CFB0EF7B0EBC70072EB577255
:104400000CFB08F734BFA2EBC702B2EBC70261EBAB
:104410005771039F4FEA816141EA921104EBCC048A
:104420004FEAD1374FEA826206FB07FC42EA90125C
:104430004FEA80604FEA1C4C0CFB0BF7D21B03FBCE
:104440000CF761EB07010CFB0EF7B0EB074072EBCA
:1044500017420CFB08F734BFA2EB0742B2EB07424E
:1044600061EB17414FEA8C554FEA910704EB9C240E
:1044700006FB07FC4FEA1C4C0CFB0BF7B0EBC740EC
:1044800072EB573203FB0CF734BFA2EBC742B2EB1F
:10449000C74261EB57310CFB0EF7B0EBC70072EB74
:1044A00057720CFB08F734BFA2EBC702B2EBC7028E
:1044B00061EB577115EB4C254FEA816141EA92118E
:1044C0004FEA82624FEAD13742EA901206FB07FCBC
:1044D00044F100044FEA80604FEA1C4C0CFB0BF7E0
:1044E000D21B03FB0CF761EB07010CFB0EF7B0EBE3
:1044F000074072EB17420CFB08F734BFA2EB0742F0
:10450000B2EB074261EB174115EB1C154FEA813105
:1045100041EA92414FEA823242EA90424FEA8030C9
:104520004FEA0C7644F1000448EA03434EEA0B4894
:104530004FF0000EB2EB080C71EB030724BF62468C
:1045400039464EEB0E0E4FF0000B00185241494118
:104550004BEB0B0BB2EB080C71EB03077BF1000B81
:1045600024BF624639464EEB0E0E4FF0000B00188A
:10457000524149414BEB0B0BB2EB080C71EB0307BB
:104580007BF1000B24BF624639464EEB0E0E51EA1A
:10459000020718BF46F0010616EB0E7655F1000231
:1045A00054F1000103D5BDE88901BDE80088BDE8EC
:1045B0008901B619BDE80048524141EB0101A3F160
:1045C0000103704780807F7E7D7C7B7A7978777667
:1045D00076757473727171706F6E6E6D6C6C6B6AE0
:1045E0006A6968686766666564646363626161607E
:1045F000605F5F5E5E5D5D5C5C5B5B5A5A595958FB
:104600005857575656555555545453535252525164
:10461000515050504F4F4F4E4E4D4D4D4C4C4C4BBA
:104620004B4B4A4A4A494949484848474747474601
:10463000464645454544444444434343434242423D
:1046400042414141002B26D4770021D01CB54FEACE
:10465000370703B44FF010004FF010014FF0000087
:104660000FBC0BF1010BBDE81040BBF1010F08BFFF
:104670005FEA170722BF12F1010211F101014FF0A9
:10468000004143F1000300F0004043EA000070479E
:10469000F9D35708DAE746EA064613F1400F4FEA26
:1046A00016461FDD13F1200FDFBF16430A46002117
:1046B00020335B42C8D0C3F1200746EA064602FA1F
:1046C00007F74FEA164646EA0706C3F1200722FA23
:1046D00003F201FA07F721FA03F14FF0000342EA6F
:1046E0000702B1E746EA020646EA06464FEA1646E0
:1046F00046EA0106BCBF46EA0646360C4FF0000308
:104700004FF000024FF000019EE72DE9C0489346AC
:1047100030B491E8380007C831EA400C48BF34EAA9
:10472000430C03D5FFF7F2FDFFF78CFFF0BCBDE8AB
:1047300000882DE9C048934630B491E8380007C896
:1047400010F0804F08BF13F0804F03D100F005F840
:10475000FFF778FFF0BCBDE8008820F07F4780EAD3
:10476000030023F07F4C07EB0C03A3F57C5300F010
:104770000040A3F1FE0392F0000F00F0B38095F02B
:10478000000F00F077802DE901494FEA11404FEA10
:10479000144621EA004800FB06FC24EA064708FB11
:1047A00006F607FB08F800FB07F718EB06484CEB8A
:1047B000164C4FEA124B18EB07484FEA15464CEBE4
:1047C000174022EA0B4E0BFB06FC25EA06470EFBC0
:1047D00006F607FB0EFE0BFB07F71EEB064E4CEB37
:1047E000164C4FF000061EEB074E4CEB174B18EB28
:1047F0000B0840F1000018EB0E0B58EB000840F1DD
:1048000000008F1A4FF000013CBFC943661B14BF64
:10481000B5EB040C00213CBFC943F61B4FEA17441B
:104820004EEA8E0E27EA04454FEA1C4704FB076256
:104830002CEA074C05FB07F70CFB05F604FB0CFC08
:1048400016EB074642EB174216EB0C4642EB1C42B6
:104850001BEB060658EB0202414146EA9E0601D5D3
:10486000BDE80189B619524141EB0101A3F10103F1
:10487000BDE801894FEA14454FEA114724EA05468D
:1048800021EA074C05FB07F406FB07F70CFB06F1D2
:1048900005FB0CFC11EB074144EB17444FEA1247B0
:1048A00011EB0C4144EB1C4422EA074C05FB07F2D8
:1048B00006FB07F70CFB06F605FB0CFC16EB0746A0
:1048C00042EB174216EB0C4642EB1C456A1854F1BA
:1048D000000148BF7047B619524141EB0101A3F1F5
:1048E0000103704795F0000F37D04FEA11424FEAAD
:1048F000144721EA024624EA074C02FB07F106FBB3
:1049000007F70CFB06F402FB0CFC14EB074441EB2D
:1049100017414FEA154714EB0C4441EB1C4125EAC3
:10492000074C02FB07F506FB07F70CFB06F602FB3C
:104930000CFC16EB074645EB174516EB0C4645EB12
:104940001C42121951F1000148BF7047B61952417B
:1049500041EB0101A3F1010370474FEA14454FEA0F
:10496000114724EA054621EA074C05FB07F106FB3F
:1049700007F70CFB06F24FF0000605FB0CFC12EBF0
:10498000074241EB174112EB0C4251EB1C4148BF6F
:104990007047921841EB0101A3F1010370474900F0
:1049A00050EAC12018BF04204A0D18BF40F0010092
:1049B00040F2FF72B2EB515F08BF40F002000128E5
:1049C00008BF0520704730380A2801D201207047FF
:1049D000002070472DE9F04106460F4600F0D2FA5C
:1049E00004000D4618BF0120284320F00040C0F10C
:1049F0007F6000F1E040C00F0ED0301C18BF0120D6
:104A0000384320F00040C0F17F6000F1E040C00F6B
:104A100004BF0120FFF700F820462946BDE8F081D9
:104A200010B500290AD00878002807D00548784436
:104A3000FFF7BAFB002801D0002010BD02487844DF
:104A400010BD0000BA0E0000B20E000021F00042BE
:104A5000A2F16052B2F5801F01F0004328BFD2F1ED
:104A60007F6C0BD95FEA001C43EAC20242EB507034
:104A700018BF704728BF20F001007047B2F5801FB3
:104A8000BCBF184670474FEA410C1CF5001F02D20C
:104A9000084600F020BE70B500F020FA0000008942
:104AA000FFF7F6BF4FF00040A0F580007047000010
:104AB0002DE9C04130B4DFF8A0C23CEA111418BFA0
:104AC0003CEA131400F0EC8081EA03051CEA11149F
:104AD00044EAD57418BF1CEA131500F0C780A4EB94
:104AE00005044FF0004545EAC12145EAC32341EAE8
:104AF000505143EA525304F17F74994204F5003453
:104B00004FEAC0204FEAC22208BF904200F09C80CA
:104B10004FEA13650FF24016765D4FEA134506FB28
:104B200005F7C7F1807706FB07F74FEAD737A7FBF2
:104B300003687642C8F58038A7FB06CE38BFA8F1D7
:104B4000010807FB08E64FF0000EA6FB028CE6FB0F
:104B500003CEDCF1000CCEF1004E38BFAEF1010EF9
:104B6000A6FB0C584FF000074FF00005E6FB0E8740
:104B7000A1FB08C6A0FB07CE16EB0E0645F100050B
:104B8000E1FB076515F1E04E7EBFA4F580345FEAD6
:104B900046066D4116F1800745F100054FEA1727DB
:104BA0004FEA066647EA0567A6F1DE46B6F1805F82
:104BB0004FEA15251FD9384624F0010C05EBC471C6
:104BC000BCF1FE6F01EB0C1102D8F0BCBDE8008116
:104BD00024425CBF01F5801E9EEAC47F02D4F0BC73
:104BE000BDE80081244238D4F0BCA1F1C041BDE849
:104BF000004100F0C1B94FEAD22242EA43524FEAE3
:104C0000D323A7FB02864FEAD02040EA415007FB9E
:104C100003661EEA0E0F4FEAD12105FB026658BF5C
:104C2000A6EB0056B6EB00564FEA520E4EEAC37E94
:104C300018EB0E0E56EB530EBDD518EB02085E4175
:104C40007F1C55F10005B6E74FF480154FF00007C3
:104C50004FF000064FF00008ADE7F0BC4FF0000049
:104C600001F1C04101F00041BDE8008111EA0C1FD3
:104C70000CEA131500D00CE013EA0C1F00F025809D
:104C80004FF00000F0BC81EA030101F00041BDE8F3
:104C90000081F0BC81EA0301BDE8004100F06CB97D
:104CA000F0BCBDE8004170B500F018F9097EFC3E8B
:104CB00000F007B881EA03014FF0000001F0004165
:104CC000704781EA030100F057B9F0BC4FF00000D3
:104CD0002249BDE800417047FFFDFBF9F7F5F4F20A
:104CE000F0EEEDEBE9E8E6E4E3E1E0DEDDDBDAD887
:104CF000D7D5D4D3D1D0CFCDCCCBCAC8C7C6C5C4E5
:104D0000C2C1C0BFBEBDBCBBBAB9B8B7B6B5B4B3FB
:104D1000B2B1B0AFAEADACABAAA9A8A8A7A6A5A4E6
:104D2000A3A3A2A1A09F9F9E9D9C9C9B9A999998AA
:104D30009797969595949393929191908F8F8E8E4D
:104D40008D8C8C8B8B8A89898888878786858584DA
:104D500084838382828181800000FF070000F87FC6
:104D6000B0FA80F310FA03F10AD0C3F11D0303F582
:104D700080634FEA41504FEA035202EBD121704762
:104D80004FF0000070470000DFF848C170B51CEA22
:104D9000111E1EBF1CEA13159EEA0C0F95EA0C0F9C
:104DA00000F06F8081EA030423EA4C134EEAD47EBC
:104DB00021EA4C1141F4801143F48013AE44A1FB6D
:104DC000024CA0FB0365AEF17F7E361955EB0C0556
:104DD000A1FB034C4CF10003A0FB021C16EB0C06DC
:104DE000654153F10003094218BF46F0010613F470
:104DF000007F0BD14FEA03314FEA0530340341EA1B
:104E0000155140EA16506FF003020AE04FEAC32141
:104E10004FEAC520F40241EA555140EA56506FF07E
:104E2000020202EB2E4201EB025585EACE710AD056
:104E30005FEA440C18BF24F0004450F1000041F137
:104E4000000120EAD47040F2FE7C624500D270BDC1
:104E5000A84214BF4FF080444FF04044002E08BFDA
:104E60000024BEF1806FA8BFA1F1C041BDE8704031
:104E700080F282804FF0000001F1C04101F000415A
:104E800070479EEA0C0F0CEA131518BF95EA0C0F39
:104E900006D04FF0000081EA030E0EF0004170BD15
:104EA00000F01CF88900013E00F007B800F009B8D6
:104EB0004FEA430C5FEA5C5C08D081EA030100F032
:104EC0005BB84FEA410C5FEA5C5CF6D14FF0000042
:104ED000014970470000FF070000F87F0EF1020E45
:104EE0002EF0030E5EF8046B364205D4012A43EB24
:104EF000030515F5001F12D8012841EB010C1CF524
:104F0000001F0CD80ED14FEAD17C15F5001F0CEB19
:104F10004C0C0CF1020C08BF4CEBD37C04E04FF0BE
:104F2000080C01E04FEAD37C0CEB4C0526FA05F6A1
:104F300006F00706B6F1040C06D20EEB860CBDE8AF
:104F400070404CF0010C6047DFE80CF0090B0202E6
:104F50004FF000414FF00000A1F5002170BD19464F
:104F60001046012851EB010418BFD4F5001484BF8A
:104F7000002001F0004170BD0808A0F500114FEAC3
:104F8000310170472DE9F04101F5801CBCF5001F8F
:104F9000C0F2C3804FEA115C21EA0C510CF1FD0C08
:104FA00041F480115FEA5C0C0CF5C07C01D3400039
:104FB00049413DA4890241EA905187028E0E0A0CB4
:104FC000A45D04FB04F602FB06F6C6F14046A4FB12
:104FD0000662F60D46EA422606FB06F4A4FB012310
:104FE0005242C3F1404338BF5B1EA6FB024200247D
:104FF000E6FB0324D20B42EA4446A6FB0623A1FBB0
:1050000002E2A3FB07E4A4184FF0000252F10002F1
:10501000E3FB01426442C2F1404E38BFAEF1010EE3
:10502000A6FB04234FF00002E6FB0E32A2FB034670
:105030004FF00004B61954F10004E2FB0264A1FB36
:1050400006E6A4FB07E816EB08064FF0000858F147
:105050000008E4FB01687642C8F1405838BFA8F167
:105060000108A2FB06E4A3FB08E52D194FF000049C
:1050700054F10004E2FB0854A1FB05E6A7FB04E899
:1050800018EB06084FF0000656F10006E1FB048617
:1050900018F1200556F10006A809A8F11B08B1096E
:1050A00008F03F08B8F10A0F40EA86601CD901EB0E
:1050B0000C51BDE8F08100BFFCF5EEE8E2DDD8D38D
:1050C000CFCBC7C3C0BDB9B6B4B1AEACA9A7A5A379
:1050D000A19F9D9B9A9896959392908F8D8C8B898A
:1050E0008887868584838281A0FB006800FB01F2AB
:1050F00008EB4208B8EB872807D5341858EB0104B1
:10510000D5D5401C51F10001D1E7341A78EB0104E8
:10511000CDD4401E71F10001C9E75FEA4C0C5FEA93
:105120009C5C0DD105D34FF0000001F00041BDE8BB
:10513000F081BDE8F04170B5FFF7D0FE6DDBFFBE3A
:10514000BDE8F0414FF00000004970470000F87FD3
:1051500043004FEAD30C4FEA3C0C43401FBF4007CB
:105160000CF1605113F0FE4F70471CF0006F03D13B
:1051700000200CF0004170470CF0004343EA5070EF
:1051800010B540EACC0000F060FA00BF00000092C9
:105190004FEA0001FFF7F0BE4FF000414FF0000072
:1051A000A1F500217047000090EA010F48BF81F08F
:1051B000004100F1CE82421A3CBF801A89184FEAA2
:1051C000D0524FF07F4C1CEA410FA2EBD15318BFD5
:1051D0009CEA026F00F03B804FF0004C4CEA00204C
:1051E0004CEA012121FA03FC10EB0C0C1ED202F157
:1051F000FF325FEA1C2040EBC25038BF70471CF002
:105200007F0F4FEA400C18BFBCF17F4F38BF70478B
:10521000C3F12003994008BF20F00100BCF17F4F8B
:1052200038BF7047A0F1C04000F055BA4FEA3C00CB
:10523000000A40EBC25028BF1CF0FF0F4FEA400CA1
:10524000E6D018BFBCF17F4F38BF7047EAE79CEA51
:10525000026F05D010EA5C0F08BF00F000407047F5
:1052600010B500F0F2F900BF64FBBE3E401058BF1D
:10527000C0F14040491058BFC1F140418142EFF3B5
:10528000008070474FF47F0C1CEAD0121EBF1CEA4E
:10529000D11392EA0C0F93EA0C0F00F0858090EA8C
:1052A000010F48BF42F4807240F4000C41F400004A
:1052B0002CF07F4120F07F4000B58142A2EB030239
:1052C0000FF2081CACEB504EC0F100009EF800E05D
:1052D0004FEA4E0E00FB0EFC38BF49004FEA2C1C73
:1052E00002F5FA020CFB0EF34FEACE1E4FEA112C28
:1052F0004FEAC1210EEB635E42EB22420EFB0CFC37
:105300004FEA1C5300FB03114FEA112C4FEA013105
:105310000EFB0CFC4FEADC4C00FB0C11C14228BF19
:1053200009184CEB03335DF804EB10EB410143EB40
:10533000C250B2F57C0F38BF704729D512F0F00F7C
:105340001CBF00F1C04000F0004070470081828324
:105350008485868788898B8C8D8E8F919293959684
:1053600097999A9C9D9FA0A2A3A5A7A8AAACAEB00E
:10537000B2B3B5B7B9BCBEC0C2C5C7C9CCCED1D413
:10538000D7D9DCDFE2E6E9ECF0F3F7FAFE00000043
:105390004FEA400C0CF1807CBCF17E4F28BF704777
:1053A000B0F1C04000F097B990EA010F0CEAD113B8
:1053B00048BF42F48072624538BF634507D213F498
:1053C0007F0F16D080EA010000F00040704710B552
:1053D00000F03BF9097EFC3E00F005B880EA0100D0
:1053E00000F00040704780EA010000F0004000F04B
:1053F00072B912F47F0F04BF0248704780EA0100BF
:1054000000F069B90000C07F50EA010C00F1138080
:105410001CF5000F58BFBCF5000F01D4884270473F
:1054200007D710F5000F58BF11F5000F15D48842AB
:105430007047894270471CF5000F04D5BCF5000F7A
:10544000F7D5814270474FF0807C1CEB400F38BF8E
:105450001CEB410F01D28142704710B500F0F5F806
:10546000922449004FF000504FF08051FFF7FEBEEC
:10547000C10DD1F19E0206DB4FEA002343F0004349
:1054800023FA02F07047004207D54FEA4001B1F11C
:10549000FE4F02D24FF00000704710B500F0D5F873
:1054A00049922480002070476FEA20007047000076
:1054B00010F0004148BF4042B0FA80F310FA03F206
:1054C000C3F19D030BD051EAC35101EB12205306E7
:1054D00038BF704700F1010008BF20F0010070479D
:1054E00050EA010C00F113801CF5000F58BFBCF509
:1054F000000F01D48842704707D710F5000F58BF3E
:1055000011F5000F15D488427047894270471CF589
:10551000000F04D5BCF5000FF7D5814270474FF05E
:10552000807C1CEB400F38BF1CEB410F01D2814245
:10553000704710B500F089F8922449004FF00050F0
:105540004FF08051FFF792BE4FF47F0C1CEAD0124F
:105550001EBF1CEAD11392EA0C0F93EA0C0F00F065
:10556000478090EA010F48BF42F480724FF0004C30
:105570004CEA00204CEA012102EB0302A0FB0113DC
:10558000A2F50002002918BF43F001035B0028BF09
:105590004FEA330342EB22425FEA132C4CEBC2503A
:1055A0002EBFBCEB436FB2F57C0F70474FEA036C24
:1055B000BCF1004F08BF20F00100B2F57C0F38BFEE
:1055C00070470BD582F0FF0212F5803FC8BF7047CD
:1055D00000F1C040D8BF00F00040704700F5000C5B
:1055E0005FEA4C0C48BF7047B0F1C04000F073B8A0
:1055F00090EA010F0CEAD11348BF42F48072624571
:1056000038BF634504D280EA010000F000407047D3
:1056100010B500F01AF800BF8900013E00F007B88D
:1056200000F009B85FEA410C5FEA1C6C08D080EA20
:10563000010000F050B85FEA400C5FEA1C6CF6D144
:105640004FF00040A0F5800070470EF1020E2EF0E2
:10565000030E5EF8044B244204D44FEA4102B2F137
:105660007F4F11D84FEA4003B3F17F4F0CD80ED1D2
:105670004FEAD07CB2F17F4F0CEB4C0C0CF1020CDA
:1056800008BF4CEBD17C04E04FF0080C01E04FEA7E
:10569000D17C0CEB4C0324FA03F404F00704B4F1BE
:1056A000040C06D20EEB840CBDE810404CF0010C4B
:1056B0006047DFE80CF0070802024FF00040A0F559
:1056C000800010BD0846420018BFD2F1807288BF2A
:1056D00000F0004010BDFF2141EAD050C0057047E6
:1056E00051EA000C00F113801CF5000F58BFBCF507
:1056F000000F01D48142704707D711F5000F58BF42
:1057000010F5000F15D481427047894270471CF58F
:10571000000F04D5BCF5000FF7D5884270474FF055
:10572000807C1CEB410F38BF1CEB400F01D288423C
:10573000704780EA010081EA000180EA0100FFF77A
:10574000F8BE000090EA010F48BF81F000413FF52C
:1057500032AD421A04D882F00042A0EB020011449C
:105760004FEAD0524FF07F4C1CEA410FA2EBD153CD
:1057700018BF9CEA026F4AD04FF0004C4CEA002060
:105780004CEA012121FA03FCB0EB0C0C0FD412F00F
:10579000FE0F36D05FEA4C001DD5001240EBC25020
:1057A00038BF70471CF03F0F18BF70470BE0A2F1E5
:1057B00001025FEA1C2040EBC25038BF70471CF06A
:1057C0007F0F18BF7047C3F12003994014BF401EDC
:1057D00020F00100704780084FEA122308BF70478D
:1057E000B0FA80FCA2EB0C02CCF1280C60FA0CF0B1
:1057F00093EA122F04BF00EBC25070474FEAC37008
:105800007047130A5FEADC1008BF7047F6E79CEAAE
:10581000026F04D010EA5C0F08BF0020704710B57B
:10582000FFF713FF40DFF63E81F000407047FEF7C0
:1058300029BA000002400000000000A000000000A3
:1058400005400000000000C8000000000C400000FF
:105850000000409C00000000194000000020BCBE79
:105860000000000034400000BFC91B8E000000048F
:10587000B5400000504BCFD06607E2CF01000000DA
:105880006C4100003E8251AADFEEA7340100000007
:10589000D9420000DCB5A0E23A301F97FFFFFFFFBE
:1058A000B4450000FD25A0C8E9A3C14FFFFFFFFFDD
:1058B000FF3F00000000008000000000FF3F0000EC
:1058C00000000080000000000459000800000020D3
:1058D000701000006C01000848650008701000207E
:1058E00058110000D00100081C0000004300000017
:1058F000F8FFFFFF0C0000000E0000000F0000008A
:105900002E0000006005004000000420115DDD2134
:105910003BA3227E180000412D7EA5412D082009C1
:1059200000C000405DDD82E71C311491302011AAD7
:105930002A94126B39460649327C0CA8118E230832
:105940002140200521F779311C2114A154601195C3
:10595000C6B13F461A2B1E58EE3735BEB4C53E20A1
:10596000A00D63A97138DF089A28B7CDC53E78200D
:105970000563A92B1E4C212C2005BEB47C0C38A03D
:105980001161AC213B95C6BAF9BAE571383BA7372E
:10599000359C201121F766D756D53F3D3BA78E2376
:1059A000A811C9CA50200961AC7E18AA2AC1C27CBC
:1059B0002144A1F020111E3BB504693E9201C83C70
:1059C0002403EB3564090821D020056C30060E1C39
:1059D0002114A1E46011AE240917AF37D607882E31
:1059E0008D0F7E1E5D1B20A40D24188C1F1E34F10C
:1059F0000AB3269015082005140B60274C212C2093
:105A0000057104FB2A382500A40DC7FD5A2E9D2CD4
:105A10001211FE15E7202C201187F05334B2281301
:105A200014480D202602EAE53650251820059CE38F
:105A30002B397C2144A5A420114ED7C53C9320EFDF
:105A4000198FFB6C2F78D1153E682530A40DE2CB61
:105A50000F3F641CC61CB8F2683374200597C1FB65
:105A60003FAC215C2005F0BCEC3F802548A40DA68E
:105A7000B8853FD5133D2282E1DB3998201140B132
:105A8000AF3D790FDA244DD9423C2EAE423C9825E9
:105A90006020058EAB823ADC2174A5BC2011B1A731
:105AA0001236A906CE2915CA4F3F78A66833F425C9
:105AB00078A40DBCA576303902212C38C3EC3FE028
:105AC0002405BCA5CE290C218C200578A62026C84B
:105AD000A81109BAB13FB1A73D2257F976304DB7A9
